{
  "contractName": "ApiDirectory",
  "abi": [
    {
      "anonymous": false,
      "inputs": [
        {
          "components": [
            {
              "internalType": "uint256",
              "name": "id",
              "type": "uint256"
            },
            {
              "internalType": "string",
              "name": "openapi",
              "type": "string"
            },
            {
              "components": [
                {
                  "internalType": "string",
                  "name": "version",
                  "type": "string"
                },
                {
                  "internalType": "string",
                  "name": "title",
                  "type": "string"
                },
                {
                  "internalType": "string",
                  "name": "description",
                  "type": "string"
                },
                {
                  "internalType": "string",
                  "name": "termsOfService",
                  "type": "string"
                },
                {
                  "components": [
                    {
                      "internalType": "string",
                      "name": "name",
                      "type": "string"
                    },
                    {
                      "internalType": "string",
                      "name": "url",
                      "type": "string"
                    },
                    {
                      "internalType": "string",
                      "name": "email",
                      "type": "string"
                    }
                  ],
                  "internalType": "struct SharedStructs.Contact",
                  "name": "contact",
                  "type": "tuple"
                },
                {
                  "components": [
                    {
                      "internalType": "string",
                      "name": "name",
                      "type": "string"
                    },
                    {
                      "internalType": "string",
                      "name": "url",
                      "type": "string"
                    }
                  ],
                  "internalType": "struct SharedStructs.Licence",
                  "name": "license",
                  "type": "tuple"
                }
              ],
              "internalType": "struct SharedStructs.Info",
              "name": "info",
              "type": "tuple"
            },
            {
              "components": [
                {
                  "internalType": "string",
                  "name": "url",
                  "type": "string"
                },
                {
                  "internalType": "string",
                  "name": "description",
                  "type": "string"
                },
                {
                  "components": [
                    {
                      "internalType": "string",
                      "name": "name",
                      "type": "string"
                    },
                    {
                      "internalType": "string[]",
                      "name": "server_enum",
                      "type": "string[]"
                    },
                    {
                      "internalType": "string",
                      "name": "description",
                      "type": "string"
                    },
                    {
                      "internalType": "string",
                      "name": "server_default",
                      "type": "string"
                    }
                  ],
                  "internalType": "struct SharedStructs.ServerVariableObject",
                  "name": "variables",
                  "type": "tuple"
                }
              ],
              "internalType": "struct SharedStructs.Server",
              "name": "servers",
              "type": "tuple"
            },
            {
              "internalType": "string",
              "name": "paths",
              "type": "string"
            },
            {
              "components": [
                {
                  "internalType": "string",
                  "name": "name",
                  "type": "string"
                },
                {
                  "components": [
                    {
                      "internalType": "string",
                      "name": "security_type",
                      "type": "string"
                    },
                    {
                      "internalType": "string",
                      "name": "description",
                      "type": "string"
                    },
                    {
                      "internalType": "string",
                      "name": "name",
                      "type": "string"
                    },
                    {
                      "internalType": "string",
                      "name": "security_in",
                      "type": "string"
                    },
                    {
                      "internalType": "string",
                      "name": "scheme",
                      "type": "string"
                    },
                    {
                      "internalType": "string",
                      "name": "bearerFormat",
                      "type": "string"
                    },
                    {
                      "components": [
                        {
                          "internalType": "string",
                          "name": "flow_type",
                          "type": "string"
                        },
                        {
                          "internalType": "string",
                          "name": "authorizationUrl",
                          "type": "string"
                        },
                        {
                          "internalType": "string",
                          "name": "tokenUrl",
                          "type": "string"
                        },
                        {
                          "internalType": "string",
                          "name": "refreshUrl",
                          "type": "string"
                        },
                        {
                          "components": [
                            {
                              "internalType": "string",
                              "name": "name",
                              "type": "string"
                            },
                            {
                              "internalType": "string",
                              "name": "description",
                              "type": "string"
                            }
                          ],
                          "internalType": "struct SharedStructs.OAuth_scopes",
                          "name": "scopes",
                          "type": "tuple"
                        }
                      ],
                      "internalType": "struct SharedStructs.OAuth_flow",
                      "name": "flows",
                      "type": "tuple"
                    },
                    {
                      "internalType": "string",
                      "name": "openIdConnectUrl",
                      "type": "string"
                    }
                  ],
                  "internalType": "struct SharedStructs.SecurityScheme",
                  "name": "mechanism",
                  "type": "tuple"
                }
              ],
              "internalType": "struct SharedStructs.Security",
              "name": "security",
              "type": "tuple"
            },
            {
              "internalType": "string",
              "name": "components",
              "type": "string"
            },
            {
              "components": [
                {
                  "internalType": "string",
                  "name": "name",
                  "type": "string"
                },
                {
                  "internalType": "string",
                  "name": "description",
                  "type": "string"
                },
                {
                  "components": [
                    {
                      "internalType": "string",
                      "name": "description",
                      "type": "string"
                    },
                    {
                      "internalType": "string",
                      "name": "url",
                      "type": "string"
                    }
                  ],
                  "internalType": "struct SharedStructs.ExternalDocs",
                  "name": "externalDocs",
                  "type": "tuple"
                }
              ],
              "internalType": "struct SharedStructs.Tags",
              "name": "tags",
              "type": "tuple"
            },
            {
              "components": [
                {
                  "internalType": "string",
                  "name": "description",
                  "type": "string"
                },
                {
                  "internalType": "string",
                  "name": "url",
                  "type": "string"
                }
              ],
              "internalType": "struct SharedStructs.ExternalDocs",
              "name": "externalDocs",
              "type": "tuple"
            },
            {
              "internalType": "string",
              "name": "x_category",
              "type": "string"
            },
            {
              "components": [
                {
                  "components": [
                    {
                      "internalType": "int256",
                      "name": "lat",
                      "type": "int256"
                    },
                    {
                      "internalType": "int256",
                      "name": "lng",
                      "type": "int256"
                    }
                  ],
                  "internalType": "struct SharedStructs.Coordinate",
                  "name": "north",
                  "type": "tuple"
                },
                {
                  "components": [
                    {
                      "internalType": "int256",
                      "name": "lat",
                      "type": "int256"
                    },
                    {
                      "internalType": "int256",
                      "name": "lng",
                      "type": "int256"
                    }
                  ],
                  "internalType": "struct SharedStructs.Coordinate",
                  "name": "south",
                  "type": "tuple"
                },
                {
                  "components": [
                    {
                      "internalType": "int256",
                      "name": "lat",
                      "type": "int256"
                    },
                    {
                      "internalType": "int256",
                      "name": "lng",
                      "type": "int256"
                    }
                  ],
                  "internalType": "struct SharedStructs.Coordinate",
                  "name": "east",
                  "type": "tuple"
                },
                {
                  "components": [
                    {
                      "internalType": "int256",
                      "name": "lat",
                      "type": "int256"
                    },
                    {
                      "internalType": "int256",
                      "name": "lng",
                      "type": "int256"
                    }
                  ],
                  "internalType": "struct SharedStructs.Coordinate",
                  "name": "west",
                  "type": "tuple"
                }
              ],
              "internalType": "struct SharedStructs.Coverage",
              "name": "x_coverage",
              "type": "tuple"
            },
            {
              "internalType": "address",
              "name": "x_api_producer",
              "type": "address"
            }
          ],
          "indexed": false,
          "internalType": "struct Functionality.API[]",
          "name": "returnApiListing",
          "type": "tuple[]"
        }
      ],
      "name": "GotPaid",
      "type": "event"
    },
    {
      "anonymous": false,
      "inputs": [
        {
          "indexed": false,
          "internalType": "string",
          "name": "title",
          "type": "string"
        },
        {
          "indexed": false,
          "internalType": "string",
          "name": "category",
          "type": "string"
        }
      ],
      "name": "NewAPIRegistered",
      "type": "event"
    },
    {
      "inputs": [
        {
          "internalType": "uint256",
          "name": "",
          "type": "uint256"
        }
      ],
      "name": "apiListings",
      "outputs": [
        {
          "internalType": "uint256",
          "name": "id",
          "type": "uint256"
        },
        {
          "internalType": "string",
          "name": "openapi",
          "type": "string"
        },
        {
          "components": [
            {
              "internalType": "string",
              "name": "version",
              "type": "string"
            },
            {
              "internalType": "string",
              "name": "title",
              "type": "string"
            },
            {
              "internalType": "string",
              "name": "description",
              "type": "string"
            },
            {
              "internalType": "string",
              "name": "termsOfService",
              "type": "string"
            },
            {
              "components": [
                {
                  "internalType": "string",
                  "name": "name",
                  "type": "string"
                },
                {
                  "internalType": "string",
                  "name": "url",
                  "type": "string"
                },
                {
                  "internalType": "string",
                  "name": "email",
                  "type": "string"
                }
              ],
              "internalType": "struct SharedStructs.Contact",
              "name": "contact",
              "type": "tuple"
            },
            {
              "components": [
                {
                  "internalType": "string",
                  "name": "name",
                  "type": "string"
                },
                {
                  "internalType": "string",
                  "name": "url",
                  "type": "string"
                }
              ],
              "internalType": "struct SharedStructs.Licence",
              "name": "license",
              "type": "tuple"
            }
          ],
          "internalType": "struct SharedStructs.Info",
          "name": "info",
          "type": "tuple"
        },
        {
          "components": [
            {
              "internalType": "string",
              "name": "url",
              "type": "string"
            },
            {
              "internalType": "string",
              "name": "description",
              "type": "string"
            },
            {
              "components": [
                {
                  "internalType": "string",
                  "name": "name",
                  "type": "string"
                },
                {
                  "internalType": "string[]",
                  "name": "server_enum",
                  "type": "string[]"
                },
                {
                  "internalType": "string",
                  "name": "description",
                  "type": "string"
                },
                {
                  "internalType": "string",
                  "name": "server_default",
                  "type": "string"
                }
              ],
              "internalType": "struct SharedStructs.ServerVariableObject",
              "name": "variables",
              "type": "tuple"
            }
          ],
          "internalType": "struct SharedStructs.Server",
          "name": "servers",
          "type": "tuple"
        },
        {
          "internalType": "string",
          "name": "paths",
          "type": "string"
        },
        {
          "components": [
            {
              "internalType": "string",
              "name": "name",
              "type": "string"
            },
            {
              "components": [
                {
                  "internalType": "string",
                  "name": "security_type",
                  "type": "string"
                },
                {
                  "internalType": "string",
                  "name": "description",
                  "type": "string"
                },
                {
                  "internalType": "string",
                  "name": "name",
                  "type": "string"
                },
                {
                  "internalType": "string",
                  "name": "security_in",
                  "type": "string"
                },
                {
                  "internalType": "string",
                  "name": "scheme",
                  "type": "string"
                },
                {
                  "internalType": "string",
                  "name": "bearerFormat",
                  "type": "string"
                },
                {
                  "components": [
                    {
                      "internalType": "string",
                      "name": "flow_type",
                      "type": "string"
                    },
                    {
                      "internalType": "string",
                      "name": "authorizationUrl",
                      "type": "string"
                    },
                    {
                      "internalType": "string",
                      "name": "tokenUrl",
                      "type": "string"
                    },
                    {
                      "internalType": "string",
                      "name": "refreshUrl",
                      "type": "string"
                    },
                    {
                      "components": [
                        {
                          "internalType": "string",
                          "name": "name",
                          "type": "string"
                        },
                        {
                          "internalType": "string",
                          "name": "description",
                          "type": "string"
                        }
                      ],
                      "internalType": "struct SharedStructs.OAuth_scopes",
                      "name": "scopes",
                      "type": "tuple"
                    }
                  ],
                  "internalType": "struct SharedStructs.OAuth_flow",
                  "name": "flows",
                  "type": "tuple"
                },
                {
                  "internalType": "string",
                  "name": "openIdConnectUrl",
                  "type": "string"
                }
              ],
              "internalType": "struct SharedStructs.SecurityScheme",
              "name": "mechanism",
              "type": "tuple"
            }
          ],
          "internalType": "struct SharedStructs.Security",
          "name": "security",
          "type": "tuple"
        },
        {
          "internalType": "string",
          "name": "components",
          "type": "string"
        },
        {
          "components": [
            {
              "internalType": "string",
              "name": "name",
              "type": "string"
            },
            {
              "internalType": "string",
              "name": "description",
              "type": "string"
            },
            {
              "components": [
                {
                  "internalType": "string",
                  "name": "description",
                  "type": "string"
                },
                {
                  "internalType": "string",
                  "name": "url",
                  "type": "string"
                }
              ],
              "internalType": "struct SharedStructs.ExternalDocs",
              "name": "externalDocs",
              "type": "tuple"
            }
          ],
          "internalType": "struct SharedStructs.Tags",
          "name": "tags",
          "type": "tuple"
        },
        {
          "components": [
            {
              "internalType": "string",
              "name": "description",
              "type": "string"
            },
            {
              "internalType": "string",
              "name": "url",
              "type": "string"
            }
          ],
          "internalType": "struct SharedStructs.ExternalDocs",
          "name": "externalDocs",
          "type": "tuple"
        },
        {
          "internalType": "string",
          "name": "x_category",
          "type": "string"
        },
        {
          "components": [
            {
              "components": [
                {
                  "internalType": "int256",
                  "name": "lat",
                  "type": "int256"
                },
                {
                  "internalType": "int256",
                  "name": "lng",
                  "type": "int256"
                }
              ],
              "internalType": "struct SharedStructs.Coordinate",
              "name": "north",
              "type": "tuple"
            },
            {
              "components": [
                {
                  "internalType": "int256",
                  "name": "lat",
                  "type": "int256"
                },
                {
                  "internalType": "int256",
                  "name": "lng",
                  "type": "int256"
                }
              ],
              "internalType": "struct SharedStructs.Coordinate",
              "name": "south",
              "type": "tuple"
            },
            {
              "components": [
                {
                  "internalType": "int256",
                  "name": "lat",
                  "type": "int256"
                },
                {
                  "internalType": "int256",
                  "name": "lng",
                  "type": "int256"
                }
              ],
              "internalType": "struct SharedStructs.Coordinate",
              "name": "east",
              "type": "tuple"
            },
            {
              "components": [
                {
                  "internalType": "int256",
                  "name": "lat",
                  "type": "int256"
                },
                {
                  "internalType": "int256",
                  "name": "lng",
                  "type": "int256"
                }
              ],
              "internalType": "struct SharedStructs.Coordinate",
              "name": "west",
              "type": "tuple"
            }
          ],
          "internalType": "struct SharedStructs.Coverage",
          "name": "x_coverage",
          "type": "tuple"
        },
        {
          "internalType": "address",
          "name": "x_api_producer",
          "type": "address"
        }
      ],
      "stateMutability": "view",
      "type": "function",
      "constant": true
    },
    {
      "inputs": [
        {
          "internalType": "uint256",
          "name": "",
          "type": "uint256"
        }
      ],
      "name": "apiToProducer",
      "outputs": [
        {
          "internalType": "address",
          "name": "",
          "type": "address"
        }
      ],
      "stateMutability": "view",
      "type": "function",
      "constant": true
    },
    {
      "inputs": [
        {
          "internalType": "string",
          "name": "_openapi",
          "type": "string"
        },
        {
          "components": [
            {
              "internalType": "string",
              "name": "version",
              "type": "string"
            },
            {
              "internalType": "string",
              "name": "title",
              "type": "string"
            },
            {
              "internalType": "string",
              "name": "description",
              "type": "string"
            },
            {
              "internalType": "string",
              "name": "termsOfService",
              "type": "string"
            },
            {
              "components": [
                {
                  "internalType": "string",
                  "name": "name",
                  "type": "string"
                },
                {
                  "internalType": "string",
                  "name": "url",
                  "type": "string"
                },
                {
                  "internalType": "string",
                  "name": "email",
                  "type": "string"
                }
              ],
              "internalType": "struct SharedStructs.Contact",
              "name": "contact",
              "type": "tuple"
            },
            {
              "components": [
                {
                  "internalType": "string",
                  "name": "name",
                  "type": "string"
                },
                {
                  "internalType": "string",
                  "name": "url",
                  "type": "string"
                }
              ],
              "internalType": "struct SharedStructs.Licence",
              "name": "license",
              "type": "tuple"
            }
          ],
          "internalType": "struct SharedStructs.Info",
          "name": "_info",
          "type": "tuple"
        },
        {
          "components": [
            {
              "internalType": "string",
              "name": "url",
              "type": "string"
            },
            {
              "internalType": "string",
              "name": "description",
              "type": "string"
            },
            {
              "components": [
                {
                  "internalType": "string",
                  "name": "name",
                  "type": "string"
                },
                {
                  "internalType": "string[]",
                  "name": "server_enum",
                  "type": "string[]"
                },
                {
                  "internalType": "string",
                  "name": "description",
                  "type": "string"
                },
                {
                  "internalType": "string",
                  "name": "server_default",
                  "type": "string"
                }
              ],
              "internalType": "struct SharedStructs.ServerVariableObject",
              "name": "variables",
              "type": "tuple"
            }
          ],
          "internalType": "struct SharedStructs.Server",
          "name": "_servers",
          "type": "tuple"
        },
        {
          "internalType": "string",
          "name": "_paths",
          "type": "string"
        },
        {
          "components": [
            {
              "internalType": "string",
              "name": "name",
              "type": "string"
            },
            {
              "components": [
                {
                  "internalType": "string",
                  "name": "security_type",
                  "type": "string"
                },
                {
                  "internalType": "string",
                  "name": "description",
                  "type": "string"
                },
                {
                  "internalType": "string",
                  "name": "name",
                  "type": "string"
                },
                {
                  "internalType": "string",
                  "name": "security_in",
                  "type": "string"
                },
                {
                  "internalType": "string",
                  "name": "scheme",
                  "type": "string"
                },
                {
                  "internalType": "string",
                  "name": "bearerFormat",
                  "type": "string"
                },
                {
                  "components": [
                    {
                      "internalType": "string",
                      "name": "flow_type",
                      "type": "string"
                    },
                    {
                      "internalType": "string",
                      "name": "authorizationUrl",
                      "type": "string"
                    },
                    {
                      "internalType": "string",
                      "name": "tokenUrl",
                      "type": "string"
                    },
                    {
                      "internalType": "string",
                      "name": "refreshUrl",
                      "type": "string"
                    },
                    {
                      "components": [
                        {
                          "internalType": "string",
                          "name": "name",
                          "type": "string"
                        },
                        {
                          "internalType": "string",
                          "name": "description",
                          "type": "string"
                        }
                      ],
                      "internalType": "struct SharedStructs.OAuth_scopes",
                      "name": "scopes",
                      "type": "tuple"
                    }
                  ],
                  "internalType": "struct SharedStructs.OAuth_flow",
                  "name": "flows",
                  "type": "tuple"
                },
                {
                  "internalType": "string",
                  "name": "openIdConnectUrl",
                  "type": "string"
                }
              ],
              "internalType": "struct SharedStructs.SecurityScheme",
              "name": "mechanism",
              "type": "tuple"
            }
          ],
          "internalType": "struct SharedStructs.Security",
          "name": "_security",
          "type": "tuple"
        },
        {
          "internalType": "string",
          "name": "_components",
          "type": "string"
        },
        {
          "components": [
            {
              "internalType": "string",
              "name": "name",
              "type": "string"
            },
            {
              "internalType": "string",
              "name": "description",
              "type": "string"
            },
            {
              "components": [
                {
                  "internalType": "string",
                  "name": "description",
                  "type": "string"
                },
                {
                  "internalType": "string",
                  "name": "url",
                  "type": "string"
                }
              ],
              "internalType": "struct SharedStructs.ExternalDocs",
              "name": "externalDocs",
              "type": "tuple"
            }
          ],
          "internalType": "struct SharedStructs.Tags",
          "name": "_tags",
          "type": "tuple"
        },
        {
          "components": [
            {
              "internalType": "string",
              "name": "description",
              "type": "string"
            },
            {
              "internalType": "string",
              "name": "url",
              "type": "string"
            }
          ],
          "internalType": "struct SharedStructs.ExternalDocs",
          "name": "_externalDocs",
          "type": "tuple"
        },
        {
          "internalType": "string",
          "name": "_x_category",
          "type": "string"
        },
        {
          "components": [
            {
              "components": [
                {
                  "internalType": "int256",
                  "name": "lat",
                  "type": "int256"
                },
                {
                  "internalType": "int256",
                  "name": "lng",
                  "type": "int256"
                }
              ],
              "internalType": "struct SharedStructs.Coordinate",
              "name": "north",
              "type": "tuple"
            },
            {
              "components": [
                {
                  "internalType": "int256",
                  "name": "lat",
                  "type": "int256"
                },
                {
                  "internalType": "int256",
                  "name": "lng",
                  "type": "int256"
                }
              ],
              "internalType": "struct SharedStructs.Coordinate",
              "name": "south",
              "type": "tuple"
            },
            {
              "components": [
                {
                  "internalType": "int256",
                  "name": "lat",
                  "type": "int256"
                },
                {
                  "internalType": "int256",
                  "name": "lng",
                  "type": "int256"
                }
              ],
              "internalType": "struct SharedStructs.Coordinate",
              "name": "east",
              "type": "tuple"
            },
            {
              "components": [
                {
                  "internalType": "int256",
                  "name": "lat",
                  "type": "int256"
                },
                {
                  "internalType": "int256",
                  "name": "lng",
                  "type": "int256"
                }
              ],
              "internalType": "struct SharedStructs.Coordinate",
              "name": "west",
              "type": "tuple"
            }
          ],
          "internalType": "struct SharedStructs.Coverage",
          "name": "_x_coverage",
          "type": "tuple"
        }
      ],
      "name": "createApi",
      "outputs": [],
      "stateMutability": "nonpayable",
      "type": "function"
    },
    {
      "inputs": [],
      "name": "getApiCount",
      "outputs": [
        {
          "internalType": "uint256",
          "name": "",
          "type": "uint256"
        }
      ],
      "stateMutability": "view",
      "type": "function",
      "constant": true
    },
    {
      "inputs": [
        {
          "internalType": "uint256",
          "name": "_id",
          "type": "uint256"
        }
      ],
      "name": "getOwnerOf",
      "outputs": [
        {
          "internalType": "address",
          "name": "",
          "type": "address"
        }
      ],
      "stateMutability": "view",
      "type": "function",
      "constant": true
    },
    {
      "inputs": [
        {
          "internalType": "string",
          "name": "_x_category",
          "type": "string"
        }
      ],
      "name": "getApiWithCategory",
      "outputs": [
        {
          "components": [
            {
              "internalType": "uint256",
              "name": "id",
              "type": "uint256"
            },
            {
              "internalType": "string",
              "name": "openapi",
              "type": "string"
            },
            {
              "components": [
                {
                  "internalType": "string",
                  "name": "version",
                  "type": "string"
                },
                {
                  "internalType": "string",
                  "name": "title",
                  "type": "string"
                },
                {
                  "internalType": "string",
                  "name": "description",
                  "type": "string"
                },
                {
                  "internalType": "string",
                  "name": "termsOfService",
                  "type": "string"
                },
                {
                  "components": [
                    {
                      "internalType": "string",
                      "name": "name",
                      "type": "string"
                    },
                    {
                      "internalType": "string",
                      "name": "url",
                      "type": "string"
                    },
                    {
                      "internalType": "string",
                      "name": "email",
                      "type": "string"
                    }
                  ],
                  "internalType": "struct SharedStructs.Contact",
                  "name": "contact",
                  "type": "tuple"
                },
                {
                  "components": [
                    {
                      "internalType": "string",
                      "name": "name",
                      "type": "string"
                    },
                    {
                      "internalType": "string",
                      "name": "url",
                      "type": "string"
                    }
                  ],
                  "internalType": "struct SharedStructs.Licence",
                  "name": "license",
                  "type": "tuple"
                }
              ],
              "internalType": "struct SharedStructs.Info",
              "name": "info",
              "type": "tuple"
            },
            {
              "components": [
                {
                  "internalType": "string",
                  "name": "url",
                  "type": "string"
                },
                {
                  "internalType": "string",
                  "name": "description",
                  "type": "string"
                },
                {
                  "components": [
                    {
                      "internalType": "string",
                      "name": "name",
                      "type": "string"
                    },
                    {
                      "internalType": "string[]",
                      "name": "server_enum",
                      "type": "string[]"
                    },
                    {
                      "internalType": "string",
                      "name": "description",
                      "type": "string"
                    },
                    {
                      "internalType": "string",
                      "name": "server_default",
                      "type": "string"
                    }
                  ],
                  "internalType": "struct SharedStructs.ServerVariableObject",
                  "name": "variables",
                  "type": "tuple"
                }
              ],
              "internalType": "struct SharedStructs.Server",
              "name": "servers",
              "type": "tuple"
            },
            {
              "internalType": "string",
              "name": "paths",
              "type": "string"
            },
            {
              "components": [
                {
                  "internalType": "string",
                  "name": "name",
                  "type": "string"
                },
                {
                  "components": [
                    {
                      "internalType": "string",
                      "name": "security_type",
                      "type": "string"
                    },
                    {
                      "internalType": "string",
                      "name": "description",
                      "type": "string"
                    },
                    {
                      "internalType": "string",
                      "name": "name",
                      "type": "string"
                    },
                    {
                      "internalType": "string",
                      "name": "security_in",
                      "type": "string"
                    },
                    {
                      "internalType": "string",
                      "name": "scheme",
                      "type": "string"
                    },
                    {
                      "internalType": "string",
                      "name": "bearerFormat",
                      "type": "string"
                    },
                    {
                      "components": [
                        {
                          "internalType": "string",
                          "name": "flow_type",
                          "type": "string"
                        },
                        {
                          "internalType": "string",
                          "name": "authorizationUrl",
                          "type": "string"
                        },
                        {
                          "internalType": "string",
                          "name": "tokenUrl",
                          "type": "string"
                        },
                        {
                          "internalType": "string",
                          "name": "refreshUrl",
                          "type": "string"
                        },
                        {
                          "components": [
                            {
                              "internalType": "string",
                              "name": "name",
                              "type": "string"
                            },
                            {
                              "internalType": "string",
                              "name": "description",
                              "type": "string"
                            }
                          ],
                          "internalType": "struct SharedStructs.OAuth_scopes",
                          "name": "scopes",
                          "type": "tuple"
                        }
                      ],
                      "internalType": "struct SharedStructs.OAuth_flow",
                      "name": "flows",
                      "type": "tuple"
                    },
                    {
                      "internalType": "string",
                      "name": "openIdConnectUrl",
                      "type": "string"
                    }
                  ],
                  "internalType": "struct SharedStructs.SecurityScheme",
                  "name": "mechanism",
                  "type": "tuple"
                }
              ],
              "internalType": "struct SharedStructs.Security",
              "name": "security",
              "type": "tuple"
            },
            {
              "internalType": "string",
              "name": "components",
              "type": "string"
            },
            {
              "components": [
                {
                  "internalType": "string",
                  "name": "name",
                  "type": "string"
                },
                {
                  "internalType": "string",
                  "name": "description",
                  "type": "string"
                },
                {
                  "components": [
                    {
                      "internalType": "string",
                      "name": "description",
                      "type": "string"
                    },
                    {
                      "internalType": "string",
                      "name": "url",
                      "type": "string"
                    }
                  ],
                  "internalType": "struct SharedStructs.ExternalDocs",
                  "name": "externalDocs",
                  "type": "tuple"
                }
              ],
              "internalType": "struct SharedStructs.Tags",
              "name": "tags",
              "type": "tuple"
            },
            {
              "components": [
                {
                  "internalType": "string",
                  "name": "description",
                  "type": "string"
                },
                {
                  "internalType": "string",
                  "name": "url",
                  "type": "string"
                }
              ],
              "internalType": "struct SharedStructs.ExternalDocs",
              "name": "externalDocs",
              "type": "tuple"
            },
            {
              "internalType": "string",
              "name": "x_category",
              "type": "string"
            },
            {
              "components": [
                {
                  "components": [
                    {
                      "internalType": "int256",
                      "name": "lat",
                      "type": "int256"
                    },
                    {
                      "internalType": "int256",
                      "name": "lng",
                      "type": "int256"
                    }
                  ],
                  "internalType": "struct SharedStructs.Coordinate",
                  "name": "north",
                  "type": "tuple"
                },
                {
                  "components": [
                    {
                      "internalType": "int256",
                      "name": "lat",
                      "type": "int256"
                    },
                    {
                      "internalType": "int256",
                      "name": "lng",
                      "type": "int256"
                    }
                  ],
                  "internalType": "struct SharedStructs.Coordinate",
                  "name": "south",
                  "type": "tuple"
                },
                {
                  "components": [
                    {
                      "internalType": "int256",
                      "name": "lat",
                      "type": "int256"
                    },
                    {
                      "internalType": "int256",
                      "name": "lng",
                      "type": "int256"
                    }
                  ],
                  "internalType": "struct SharedStructs.Coordinate",
                  "name": "east",
                  "type": "tuple"
                },
                {
                  "components": [
                    {
                      "internalType": "int256",
                      "name": "lat",
                      "type": "int256"
                    },
                    {
                      "internalType": "int256",
                      "name": "lng",
                      "type": "int256"
                    }
                  ],
                  "internalType": "struct SharedStructs.Coordinate",
                  "name": "west",
                  "type": "tuple"
                }
              ],
              "internalType": "struct SharedStructs.Coverage",
              "name": "x_coverage",
              "type": "tuple"
            },
            {
              "internalType": "address",
              "name": "x_api_producer",
              "type": "address"
            }
          ],
          "internalType": "struct Functionality.API[]",
          "name": "",
          "type": "tuple[]"
        }
      ],
      "stateMutability": "view",
      "type": "function",
      "constant": true
    },
    {
      "inputs": [
        {
          "components": [
            {
              "internalType": "int256",
              "name": "lat",
              "type": "int256"
            },
            {
              "internalType": "int256",
              "name": "lng",
              "type": "int256"
            }
          ],
          "internalType": "struct SharedStructs.Coordinate",
          "name": "point",
          "type": "tuple"
        }
      ],
      "name": "getApiWithCoverage",
      "outputs": [
        {
          "components": [
            {
              "internalType": "uint256",
              "name": "id",
              "type": "uint256"
            },
            {
              "internalType": "string",
              "name": "openapi",
              "type": "string"
            },
            {
              "components": [
                {
                  "internalType": "string",
                  "name": "version",
                  "type": "string"
                },
                {
                  "internalType": "string",
                  "name": "title",
                  "type": "string"
                },
                {
                  "internalType": "string",
                  "name": "description",
                  "type": "string"
                },
                {
                  "internalType": "string",
                  "name": "termsOfService",
                  "type": "string"
                },
                {
                  "components": [
                    {
                      "internalType": "string",
                      "name": "name",
                      "type": "string"
                    },
                    {
                      "internalType": "string",
                      "name": "url",
                      "type": "string"
                    },
                    {
                      "internalType": "string",
                      "name": "email",
                      "type": "string"
                    }
                  ],
                  "internalType": "struct SharedStructs.Contact",
                  "name": "contact",
                  "type": "tuple"
                },
                {
                  "components": [
                    {
                      "internalType": "string",
                      "name": "name",
                      "type": "string"
                    },
                    {
                      "internalType": "string",
                      "name": "url",
                      "type": "string"
                    }
                  ],
                  "internalType": "struct SharedStructs.Licence",
                  "name": "license",
                  "type": "tuple"
                }
              ],
              "internalType": "struct SharedStructs.Info",
              "name": "info",
              "type": "tuple"
            },
            {
              "components": [
                {
                  "internalType": "string",
                  "name": "url",
                  "type": "string"
                },
                {
                  "internalType": "string",
                  "name": "description",
                  "type": "string"
                },
                {
                  "components": [
                    {
                      "internalType": "string",
                      "name": "name",
                      "type": "string"
                    },
                    {
                      "internalType": "string[]",
                      "name": "server_enum",
                      "type": "string[]"
                    },
                    {
                      "internalType": "string",
                      "name": "description",
                      "type": "string"
                    },
                    {
                      "internalType": "string",
                      "name": "server_default",
                      "type": "string"
                    }
                  ],
                  "internalType": "struct SharedStructs.ServerVariableObject",
                  "name": "variables",
                  "type": "tuple"
                }
              ],
              "internalType": "struct SharedStructs.Server",
              "name": "servers",
              "type": "tuple"
            },
            {
              "internalType": "string",
              "name": "paths",
              "type": "string"
            },
            {
              "components": [
                {
                  "internalType": "string",
                  "name": "name",
                  "type": "string"
                },
                {
                  "components": [
                    {
                      "internalType": "string",
                      "name": "security_type",
                      "type": "string"
                    },
                    {
                      "internalType": "string",
                      "name": "description",
                      "type": "string"
                    },
                    {
                      "internalType": "string",
                      "name": "name",
                      "type": "string"
                    },
                    {
                      "internalType": "string",
                      "name": "security_in",
                      "type": "string"
                    },
                    {
                      "internalType": "string",
                      "name": "scheme",
                      "type": "string"
                    },
                    {
                      "internalType": "string",
                      "name": "bearerFormat",
                      "type": "string"
                    },
                    {
                      "components": [
                        {
                          "internalType": "string",
                          "name": "flow_type",
                          "type": "string"
                        },
                        {
                          "internalType": "string",
                          "name": "authorizationUrl",
                          "type": "string"
                        },
                        {
                          "internalType": "string",
                          "name": "tokenUrl",
                          "type": "string"
                        },
                        {
                          "internalType": "string",
                          "name": "refreshUrl",
                          "type": "string"
                        },
                        {
                          "components": [
                            {
                              "internalType": "string",
                              "name": "name",
                              "type": "string"
                            },
                            {
                              "internalType": "string",
                              "name": "description",
                              "type": "string"
                            }
                          ],
                          "internalType": "struct SharedStructs.OAuth_scopes",
                          "name": "scopes",
                          "type": "tuple"
                        }
                      ],
                      "internalType": "struct SharedStructs.OAuth_flow",
                      "name": "flows",
                      "type": "tuple"
                    },
                    {
                      "internalType": "string",
                      "name": "openIdConnectUrl",
                      "type": "string"
                    }
                  ],
                  "internalType": "struct SharedStructs.SecurityScheme",
                  "name": "mechanism",
                  "type": "tuple"
                }
              ],
              "internalType": "struct SharedStructs.Security",
              "name": "security",
              "type": "tuple"
            },
            {
              "internalType": "string",
              "name": "components",
              "type": "string"
            },
            {
              "components": [
                {
                  "internalType": "string",
                  "name": "name",
                  "type": "string"
                },
                {
                  "internalType": "string",
                  "name": "description",
                  "type": "string"
                },
                {
                  "components": [
                    {
                      "internalType": "string",
                      "name": "description",
                      "type": "string"
                    },
                    {
                      "internalType": "string",
                      "name": "url",
                      "type": "string"
                    }
                  ],
                  "internalType": "struct SharedStructs.ExternalDocs",
                  "name": "externalDocs",
                  "type": "tuple"
                }
              ],
              "internalType": "struct SharedStructs.Tags",
              "name": "tags",
              "type": "tuple"
            },
            {
              "components": [
                {
                  "internalType": "string",
                  "name": "description",
                  "type": "string"
                },
                {
                  "internalType": "string",
                  "name": "url",
                  "type": "string"
                }
              ],
              "internalType": "struct SharedStructs.ExternalDocs",
              "name": "externalDocs",
              "type": "tuple"
            },
            {
              "internalType": "string",
              "name": "x_category",
              "type": "string"
            },
            {
              "components": [
                {
                  "components": [
                    {
                      "internalType": "int256",
                      "name": "lat",
                      "type": "int256"
                    },
                    {
                      "internalType": "int256",
                      "name": "lng",
                      "type": "int256"
                    }
                  ],
                  "internalType": "struct SharedStructs.Coordinate",
                  "name": "north",
                  "type": "tuple"
                },
                {
                  "components": [
                    {
                      "internalType": "int256",
                      "name": "lat",
                      "type": "int256"
                    },
                    {
                      "internalType": "int256",
                      "name": "lng",
                      "type": "int256"
                    }
                  ],
                  "internalType": "struct SharedStructs.Coordinate",
                  "name": "south",
                  "type": "tuple"
                },
                {
                  "components": [
                    {
                      "internalType": "int256",
                      "name": "lat",
                      "type": "int256"
                    },
                    {
                      "internalType": "int256",
                      "name": "lng",
                      "type": "int256"
                    }
                  ],
                  "internalType": "struct SharedStructs.Coordinate",
                  "name": "east",
                  "type": "tuple"
                },
                {
                  "components": [
                    {
                      "internalType": "int256",
                      "name": "lat",
                      "type": "int256"
                    },
                    {
                      "internalType": "int256",
                      "name": "lng",
                      "type": "int256"
                    }
                  ],
                  "internalType": "struct SharedStructs.Coordinate",
                  "name": "west",
                  "type": "tuple"
                }
              ],
              "internalType": "struct SharedStructs.Coverage",
              "name": "x_coverage",
              "type": "tuple"
            },
            {
              "internalType": "address",
              "name": "x_api_producer",
              "type": "address"
            }
          ],
          "internalType": "struct Functionality.API[]",
          "name": "",
          "type": "tuple[]"
        }
      ],
      "stateMutability": "view",
      "type": "function",
      "constant": true
    },
    {
      "inputs": [
        {
          "internalType": "string",
          "name": "_x_category",
          "type": "string"
        },
        {
          "components": [
            {
              "internalType": "int256",
              "name": "lat",
              "type": "int256"
            },
            {
              "internalType": "int256",
              "name": "lng",
              "type": "int256"
            }
          ],
          "internalType": "struct SharedStructs.Coordinate",
          "name": "point",
          "type": "tuple"
        }
      ],
      "name": "getApiWithCatAndCov",
      "outputs": [
        {
          "components": [
            {
              "internalType": "uint256",
              "name": "id",
              "type": "uint256"
            },
            {
              "internalType": "string",
              "name": "openapi",
              "type": "string"
            },
            {
              "components": [
                {
                  "internalType": "string",
                  "name": "version",
                  "type": "string"
                },
                {
                  "internalType": "string",
                  "name": "title",
                  "type": "string"
                },
                {
                  "internalType": "string",
                  "name": "description",
                  "type": "string"
                },
                {
                  "internalType": "string",
                  "name": "termsOfService",
                  "type": "string"
                },
                {
                  "components": [
                    {
                      "internalType": "string",
                      "name": "name",
                      "type": "string"
                    },
                    {
                      "internalType": "string",
                      "name": "url",
                      "type": "string"
                    },
                    {
                      "internalType": "string",
                      "name": "email",
                      "type": "string"
                    }
                  ],
                  "internalType": "struct SharedStructs.Contact",
                  "name": "contact",
                  "type": "tuple"
                },
                {
                  "components": [
                    {
                      "internalType": "string",
                      "name": "name",
                      "type": "string"
                    },
                    {
                      "internalType": "string",
                      "name": "url",
                      "type": "string"
                    }
                  ],
                  "internalType": "struct SharedStructs.Licence",
                  "name": "license",
                  "type": "tuple"
                }
              ],
              "internalType": "struct SharedStructs.Info",
              "name": "info",
              "type": "tuple"
            },
            {
              "components": [
                {
                  "internalType": "string",
                  "name": "url",
                  "type": "string"
                },
                {
                  "internalType": "string",
                  "name": "description",
                  "type": "string"
                },
                {
                  "components": [
                    {
                      "internalType": "string",
                      "name": "name",
                      "type": "string"
                    },
                    {
                      "internalType": "string[]",
                      "name": "server_enum",
                      "type": "string[]"
                    },
                    {
                      "internalType": "string",
                      "name": "description",
                      "type": "string"
                    },
                    {
                      "internalType": "string",
                      "name": "server_default",
                      "type": "string"
                    }
                  ],
                  "internalType": "struct SharedStructs.ServerVariableObject",
                  "name": "variables",
                  "type": "tuple"
                }
              ],
              "internalType": "struct SharedStructs.Server",
              "name": "servers",
              "type": "tuple"
            },
            {
              "internalType": "string",
              "name": "paths",
              "type": "string"
            },
            {
              "components": [
                {
                  "internalType": "string",
                  "name": "name",
                  "type": "string"
                },
                {
                  "components": [
                    {
                      "internalType": "string",
                      "name": "security_type",
                      "type": "string"
                    },
                    {
                      "internalType": "string",
                      "name": "description",
                      "type": "string"
                    },
                    {
                      "internalType": "string",
                      "name": "name",
                      "type": "string"
                    },
                    {
                      "internalType": "string",
                      "name": "security_in",
                      "type": "string"
                    },
                    {
                      "internalType": "string",
                      "name": "scheme",
                      "type": "string"
                    },
                    {
                      "internalType": "string",
                      "name": "bearerFormat",
                      "type": "string"
                    },
                    {
                      "components": [
                        {
                          "internalType": "string",
                          "name": "flow_type",
                          "type": "string"
                        },
                        {
                          "internalType": "string",
                          "name": "authorizationUrl",
                          "type": "string"
                        },
                        {
                          "internalType": "string",
                          "name": "tokenUrl",
                          "type": "string"
                        },
                        {
                          "internalType": "string",
                          "name": "refreshUrl",
                          "type": "string"
                        },
                        {
                          "components": [
                            {
                              "internalType": "string",
                              "name": "name",
                              "type": "string"
                            },
                            {
                              "internalType": "string",
                              "name": "description",
                              "type": "string"
                            }
                          ],
                          "internalType": "struct SharedStructs.OAuth_scopes",
                          "name": "scopes",
                          "type": "tuple"
                        }
                      ],
                      "internalType": "struct SharedStructs.OAuth_flow",
                      "name": "flows",
                      "type": "tuple"
                    },
                    {
                      "internalType": "string",
                      "name": "openIdConnectUrl",
                      "type": "string"
                    }
                  ],
                  "internalType": "struct SharedStructs.SecurityScheme",
                  "name": "mechanism",
                  "type": "tuple"
                }
              ],
              "internalType": "struct SharedStructs.Security",
              "name": "security",
              "type": "tuple"
            },
            {
              "internalType": "string",
              "name": "components",
              "type": "string"
            },
            {
              "components": [
                {
                  "internalType": "string",
                  "name": "name",
                  "type": "string"
                },
                {
                  "internalType": "string",
                  "name": "description",
                  "type": "string"
                },
                {
                  "components": [
                    {
                      "internalType": "string",
                      "name": "description",
                      "type": "string"
                    },
                    {
                      "internalType": "string",
                      "name": "url",
                      "type": "string"
                    }
                  ],
                  "internalType": "struct SharedStructs.ExternalDocs",
                  "name": "externalDocs",
                  "type": "tuple"
                }
              ],
              "internalType": "struct SharedStructs.Tags",
              "name": "tags",
              "type": "tuple"
            },
            {
              "components": [
                {
                  "internalType": "string",
                  "name": "description",
                  "type": "string"
                },
                {
                  "internalType": "string",
                  "name": "url",
                  "type": "string"
                }
              ],
              "internalType": "struct SharedStructs.ExternalDocs",
              "name": "externalDocs",
              "type": "tuple"
            },
            {
              "internalType": "string",
              "name": "x_category",
              "type": "string"
            },
            {
              "components": [
                {
                  "components": [
                    {
                      "internalType": "int256",
                      "name": "lat",
                      "type": "int256"
                    },
                    {
                      "internalType": "int256",
                      "name": "lng",
                      "type": "int256"
                    }
                  ],
                  "internalType": "struct SharedStructs.Coordinate",
                  "name": "north",
                  "type": "tuple"
                },
                {
                  "components": [
                    {
                      "internalType": "int256",
                      "name": "lat",
                      "type": "int256"
                    },
                    {
                      "internalType": "int256",
                      "name": "lng",
                      "type": "int256"
                    }
                  ],
                  "internalType": "struct SharedStructs.Coordinate",
                  "name": "south",
                  "type": "tuple"
                },
                {
                  "components": [
                    {
                      "internalType": "int256",
                      "name": "lat",
                      "type": "int256"
                    },
                    {
                      "internalType": "int256",
                      "name": "lng",
                      "type": "int256"
                    }
                  ],
                  "internalType": "struct SharedStructs.Coordinate",
                  "name": "east",
                  "type": "tuple"
                },
                {
                  "components": [
                    {
                      "internalType": "int256",
                      "name": "lat",
                      "type": "int256"
                    },
                    {
                      "internalType": "int256",
                      "name": "lng",
                      "type": "int256"
                    }
                  ],
                  "internalType": "struct SharedStructs.Coordinate",
                  "name": "west",
                  "type": "tuple"
                }
              ],
              "internalType": "struct SharedStructs.Coverage",
              "name": "x_coverage",
              "type": "tuple"
            },
            {
              "internalType": "address",
              "name": "x_api_producer",
              "type": "address"
            }
          ],
          "internalType": "struct Functionality.API[]",
          "name": "",
          "type": "tuple[]"
        }
      ],
      "stateMutability": "view",
      "type": "function",
      "constant": true
    },
    {
      "inputs": [
        {
          "components": [
            {
              "internalType": "int256",
              "name": "lat",
              "type": "int256"
            },
            {
              "internalType": "int256",
              "name": "lng",
              "type": "int256"
            }
          ],
          "internalType": "struct SharedStructs.Coordinate",
          "name": "point",
          "type": "tuple"
        }
      ],
      "name": "getApiWithCoveragePayable",
      "outputs": [],
      "stateMutability": "payable",
      "type": "function",
      "payable": true
    }
  ],
  "bytecode": "0x608060405234801561001057600080fd5b50615ea680620000216000396000f3fe6080604052600436106100865760003560e01c80636595147d116100595780636595147d1461015557806383638710146101925780639a33fc03146101cf5780639f3434871461020c578063ef77e3e41461023757610086565b806326918c3c1461008b578063409919bf146100b4578063447d1b52146100f15780634a8ef7cc1461010d575b600080fd5b34801561009757600080fd5b506100b260048036038101906100ad9190613199565b610274565b005b3480156100c057600080fd5b506100db60048036038101906100d69190613374565b6108c4565b6040516100e89190613cab565b60405180910390f35b61010b60048036038101906101069190613ccd565b61094d565b005b34801561011957600080fd5b50610134600480360381019061012f9190613d26565b610a1a565b60405161014c9c9b9a99989796959493929190614001565b60405180910390f35b34801561016157600080fd5b5061017c600480360381019061017791906140fa565b612270565b6040516101899190613cab565b60405180910390f35b34801561019e57600080fd5b506101b960048036038101906101b49190613d26565b6122fc565b6040516101c69190614156565b60405180910390f35b3480156101db57600080fd5b506101f660048036038101906101f19190613d26565b612339565b6040516102039190614156565b60405180910390f35b34801561021857600080fd5b5061022161236c565b60405161022e9190614171565b60405180910390f35b34801561024357600080fd5b5061025e60048036038101906102599190613ccd565b6123b3565b60405161026b9190613cab565b60405180910390f35b60008080549050905060006040518061018001604052808381526020018d81526020018c81526020018b81526020018a81526020018981526020018881526020018781526020018681526020018581526020018481526020013373ffffffffffffffffffffffffffffffffffffffff16815250908060018154018082558091505060019003906000526020600020906031020160009091909190915060008201518160000155602082015181600101908161032f9190614398565b50604082015181600201600082015181600001908161034e9190614398565b5060208201518160010190816103649190614398565b50604082015181600201908161037a9190614398565b5060608201518160030190816103909190614398565b5060808201518160040160008201518160000190816103af9190614398565b5060208201518160010190816103c59190614398565b5060408201518160020190816103db9190614398565b50505060a08201518160070160008201518160000190816103fc9190614398565b5060208201518160010190816104129190614398565b5050505050606082015181600b0160008201518160000190816104359190614398565b50602082015181600101908161044b9190614398565b50604082015181600201600082015181600001908161046a9190614398565b50602082015181600101908051906020019061048792919061243c565b50604082015181600201908161049d9190614398565b5060608201518160030190816104b39190614398565b505050505060808201518160110190816104cd9190614398565b5060a08201518160120160008201518160000190816104ec9190614398565b50602082015181600101600082015181600001908161050b9190614398565b5060208201518160010190816105219190614398565b5060408201518160020190816105379190614398565b50606082015181600301908161054d9190614398565b5060808201518160040190816105639190614398565b5060a08201518160050190816105799190614398565b5060c08201518160060160008201518160000190816105989190614398565b5060208201518160010190816105ae9190614398565b5060408201518160020190816105c49190614398565b5060608201518160030190816105da9190614398565b5060808201518160040160008201518160000190816105f99190614398565b50602082015181600101908161060f9190614398565b505050505060e082015181600c0190816106299190614398565b505050505060c08201518160200190816106439190614398565b5060e08201518160210160008201518160000190816106629190614398565b5060208201518160010190816106789190614398565b5060408201518160020160008201518160000190816106979190614398565b5060208201518160010190816106ad9190614398565b50505050506101008201518160250160008201518160000190816106d19190614398565b5060208201518160010190816106e79190614398565b5050506101208201518160270190816107009190614398565b50610140820151816028016000820151816000016000820151816000015560208201518160010155505060208201518160020160008201518160000155602082015181600101555050604082015181600401600082015181600001556020820151816001015550506060820151816006016000820151816000015560208201518160010155505050506101608201518160300160006101000a81548173ffffffffffffffffffffffffffffffffffffffff021916908373ffffffffffffffffffffffffffffffffffffffff1602179055505050336001600083815260200190815260200160002060006101000a81548173ffffffffffffffffffffffffffffffffffffffff021916908373ffffffffffffffffffffffffffffffffffffffff160217905550600260003373ffffffffffffffffffffffffffffffffffffffff1673ffffffffffffffffffffffffffffffffffffffff168152602001908152602001600020600081548092919061087590614499565b91905055507f2d69d97968946cfe47cb999b81547b915a27cde758cf9a45669109f5152aa3c28a60200151846040516108af9291906144e1565b60405180910390a15050505050505050505050565b606073__Functionality_________________________6306fe6ddc8360006040518363ffffffff1660e01b8152600401610900929190614ecf565b600060405180830381865af415801561091d573d6000803e3d6000fd5b505050506040513d6000823e3d601f19601f820116820180604052508101906109469190615d83565b9050919050565b6729a2241af62c0000341461096157600080fd5b7f42f369b9e559173fff1e0aaff416cf17a26a48e85908278c80366b8df3c1854d73__Functionality_________________________635ce14a408360006040518363ffffffff1660e01b81526004016109bc929190615dfb565b600060405180830381865af41580156109d9573d6000803e3d6000fd5b505050506040513d6000823e3d601f19601f82011682018060405250810190610a029190615d83565b604051610a0f9190613cab565b60405180910390a150565b60008181548110610a2a57600080fd5b9060005260206000209060310201600091509050806000015490806001018054610a53906141bb565b80601f0160208091040260200160405190810160405280929190818152602001828054610a7f906141bb565b8015610acc5780601f10610aa157610100808354040283529160200191610acc565b820191906000526020600020905b815481529060010190602001808311610aaf57829003601f168201915b505050505090806002016040518060c0016040529081600082018054610af1906141bb565b80601f0160208091040260200160405190810160405280929190818152602001828054610b1d906141bb565b8015610b6a5780601f10610b3f57610100808354040283529160200191610b6a565b820191906000526020600020905b815481529060010190602001808311610b4d57829003601f168201915b50505050508152602001600182018054610b83906141bb565b80601f0160208091040260200160405190810160405280929190818152602001828054610baf906141bb565b8015610bfc5780601f10610bd157610100808354040283529160200191610bfc565b820191906000526020600020905b815481529060010190602001808311610bdf57829003601f168201915b50505050508152602001600282018054610c15906141bb565b80601f0160208091040260200160405190810160405280929190818152602001828054610c41906141bb565b8015610c8e5780601f10610c6357610100808354040283529160200191610c8e565b820191906000526020600020905b815481529060010190602001808311610c7157829003601f168201915b50505050508152602001600382018054610ca7906141bb565b80601f0160208091040260200160405190810160405280929190818152602001828054610cd3906141bb565b8015610d205780601f10610cf557610100808354040283529160200191610d20565b820191906000526020600020905b815481529060010190602001808311610d0357829003601f168201915b5050505050815260200160048201604051806060016040529081600082018054610d49906141bb565b80601f0160208091040260200160405190810160405280929190818152602001828054610d75906141bb565b8015610dc25780601f10610d9757610100808354040283529160200191610dc2565b820191906000526020600020905b815481529060010190602001808311610da557829003601f168201915b50505050508152602001600182018054610ddb906141bb565b80601f0160208091040260200160405190810160405280929190818152602001828054610e07906141bb565b8015610e545780601f10610e2957610100808354040283529160200191610e54565b820191906000526020600020905b815481529060010190602001808311610e3757829003601f168201915b50505050508152602001600282018054610e6d906141bb565b80601f0160208091040260200160405190810160405280929190818152602001828054610e99906141bb565b8015610ee65780601f10610ebb57610100808354040283529160200191610ee6565b820191906000526020600020905b815481529060010190602001808311610ec957829003601f168201915b505050505081525050815260200160078201604051806040016040529081600082018054610f13906141bb565b80601f0160208091040260200160405190810160405280929190818152602001828054610f3f906141bb565b8015610f8c5780601f10610f6157610100808354040283529160200191610f8c565b820191906000526020600020905b815481529060010190602001808311610f6f57829003601f168201915b50505050508152602001600182018054610fa5906141bb565b80601f0160208091040260200160405190810160405280929190818152602001828054610fd1906141bb565b801561101e5780601f10610ff35761010080835404028352916020019161101e565b820191906000526020600020905b81548152906001019060200180831161100157829003601f168201915b505050505081525050815250509080600b0160405180606001604052908160008201805461104b906141bb565b80601f0160208091040260200160405190810160405280929190818152602001828054611077906141bb565b80156110c45780601f10611099576101008083540402835291602001916110c4565b820191906000526020600020905b8154815290600101906020018083116110a757829003601f168201915b505050505081526020016001820180546110dd906141bb565b80601f0160208091040260200160405190810160405280929190818152602001828054611109906141bb565b80156111565780601f1061112b57610100808354040283529160200191611156565b820191906000526020600020905b81548152906001019060200180831161113957829003601f168201915b505050505081526020016002820160405180608001604052908160008201805461117f906141bb565b80601f01602080910402602001604051908101604052809291908181526020018280546111ab906141bb565b80156111f85780601f106111cd576101008083540402835291602001916111f8565b820191906000526020600020905b8154815290600101906020018083116111db57829003601f168201915b5050505050815260200160018201805480602002602001604051908101604052809291908181526020016000905b828210156112d2578382906000526020600020018054611245906141bb565b80601f0160208091040260200160405190810160405280929190818152602001828054611271906141bb565b80156112be5780601f10611293576101008083540402835291602001916112be565b820191906000526020600020905b8154815290600101906020018083116112a157829003601f168201915b505050505081526020019060010190611226565b5050505081526020016002820180546112ea906141bb565b80601f0160208091040260200160405190810160405280929190818152602001828054611316906141bb565b80156113635780601f1061133857610100808354040283529160200191611363565b820191906000526020600020905b81548152906001019060200180831161134657829003601f168201915b5050505050815260200160038201805461137c906141bb565b80601f01602080910402602001604051908101604052809291908181526020018280546113a8906141bb565b80156113f55780601f106113ca576101008083540402835291602001916113f5565b820191906000526020600020905b8154815290600101906020018083116113d857829003601f168201915b5050505050815250508152505090806011018054611412906141bb565b80601f016020809104026020016040519081016040528092919081815260200182805461143e906141bb565b801561148b5780601f106114605761010080835404028352916020019161148b565b820191906000526020600020905b81548152906001019060200180831161146e57829003601f168201915b505050505090806012016040518060400160405290816000820180546114b0906141bb565b80601f01602080910402602001604051908101604052809291908181526020018280546114dc906141bb565b80156115295780601f106114fe57610100808354040283529160200191611529565b820191906000526020600020905b81548152906001019060200180831161150c57829003601f168201915b505050505081526020016001820160405180610100016040529081600082018054611553906141bb565b80601f016020809104026020016040519081016040528092919081815260200182805461157f906141bb565b80156115cc5780601f106115a1576101008083540402835291602001916115cc565b820191906000526020600020905b8154815290600101906020018083116115af57829003601f168201915b505050505081526020016001820180546115e5906141bb565b80601f0160208091040260200160405190810160405280929190818152602001828054611611906141bb565b801561165e5780601f106116335761010080835404028352916020019161165e565b820191906000526020600020905b81548152906001019060200180831161164157829003601f168201915b50505050508152602001600282018054611677906141bb565b80601f01602080910402602001604051908101604052809291908181526020018280546116a3906141bb565b80156116f05780601f106116c5576101008083540402835291602001916116f0565b820191906000526020600020905b8154815290600101906020018083116116d357829003601f168201915b50505050508152602001600382018054611709906141bb565b80601f0160208091040260200160405190810160405280929190818152602001828054611735906141bb565b80156117825780601f1061175757610100808354040283529160200191611782565b820191906000526020600020905b81548152906001019060200180831161176557829003601f168201915b5050505050815260200160048201805461179b906141bb565b80601f01602080910402602001604051908101604052809291908181526020018280546117c7906141bb565b80156118145780601f106117e957610100808354040283529160200191611814565b820191906000526020600020905b8154815290600101906020018083116117f757829003601f168201915b5050505050815260200160058201805461182d906141bb565b80601f0160208091040260200160405190810160405280929190818152602001828054611859906141bb565b80156118a65780601f1061187b576101008083540402835291602001916118a6565b820191906000526020600020905b81548152906001019060200180831161188957829003601f168201915b50505050508152602001600682016040518060a00160405290816000820180546118cf906141bb565b80601f01602080910402602001604051908101604052809291908181526020018280546118fb906141bb565b80156119485780601f1061191d57610100808354040283529160200191611948565b820191906000526020600020905b81548152906001019060200180831161192b57829003601f168201915b50505050508152602001600182018054611961906141bb565b80601f016020809104026020016040519081016040528092919081815260200182805461198d906141bb565b80156119da5780601f106119af576101008083540402835291602001916119da565b820191906000526020600020905b8154815290600101906020018083116119bd57829003601f168201915b505050505081526020016002820180546119f3906141bb565b80601f0160208091040260200160405190810160405280929190818152602001828054611a1f906141bb565b8015611a6c5780601f10611a4157610100808354040283529160200191611a6c565b820191906000526020600020905b815481529060010190602001808311611a4f57829003601f168201915b50505050508152602001600382018054611a85906141bb565b80601f0160208091040260200160405190810160405280929190818152602001828054611ab1906141bb565b8015611afe5780601f10611ad357610100808354040283529160200191611afe565b820191906000526020600020905b815481529060010190602001808311611ae157829003601f168201915b5050505050815260200160048201604051806040016040529081600082018054611b27906141bb565b80601f0160208091040260200160405190810160405280929190818152602001828054611b53906141bb565b8015611ba05780601f10611b7557610100808354040283529160200191611ba0565b820191906000526020600020905b815481529060010190602001808311611b8357829003601f168201915b50505050508152602001600182018054611bb9906141bb565b80601f0160208091040260200160405190810160405280929190818152602001828054611be5906141bb565b8015611c325780601f10611c0757610100808354040283529160200191611c32565b820191906000526020600020905b815481529060010190602001808311611c1557829003601f168201915b505050505081525050815250508152602001600c82018054611c53906141bb565b80601f0160208091040260200160405190810160405280929190818152602001828054611c7f906141bb565b8015611ccc5780601f10611ca157610100808354040283529160200191611ccc565b820191906000526020600020905b815481529060010190602001808311611caf57829003601f168201915b5050505050815250508152505090806020018054611ce9906141bb565b80601f0160208091040260200160405190810160405280929190818152602001828054611d15906141bb565b8015611d625780601f10611d3757610100808354040283529160200191611d62565b820191906000526020600020905b815481529060010190602001808311611d4557829003601f168201915b50505050509080602101604051806060016040529081600082018054611d87906141bb565b80601f0160208091040260200160405190810160405280929190818152602001828054611db3906141bb565b8015611e005780601f10611dd557610100808354040283529160200191611e00565b820191906000526020600020905b815481529060010190602001808311611de357829003601f168201915b50505050508152602001600182018054611e19906141bb565b80601f0160208091040260200160405190810160405280929190818152602001828054611e45906141bb565b8015611e925780601f10611e6757610100808354040283529160200191611e92565b820191906000526020600020905b815481529060010190602001808311611e7557829003601f168201915b5050505050815260200160028201604051806040016040529081600082018054611ebb906141bb565b80601f0160208091040260200160405190810160405280929190818152602001828054611ee7906141bb565b8015611f345780601f10611f0957610100808354040283529160200191611f34565b820191906000526020600020905b815481529060010190602001808311611f1757829003601f168201915b50505050508152602001600182018054611f4d906141bb565b80601f0160208091040260200160405190810160405280929190818152602001828054611f79906141bb565b8015611fc65780601f10611f9b57610100808354040283529160200191611fc6565b820191906000526020600020905b815481529060010190602001808311611fa957829003601f168201915b505050505081525050815250509080602501604051806040016040529081600082018054611ff3906141bb565b80601f016020809104026020016040519081016040528092919081815260200182805461201f906141bb565b801561206c5780601f106120415761010080835404028352916020019161206c565b820191906000526020600020905b81548152906001019060200180831161204f57829003601f168201915b50505050508152602001600182018054612085906141bb565b80601f01602080910402602001604051908101604052809291908181526020018280546120b1906141bb565b80156120fe5780601f106120d3576101008083540402835291602001916120fe565b820191906000526020600020905b8154815290600101906020018083116120e157829003601f168201915b50505050508152505090806027018054612117906141bb565b80601f0160208091040260200160405190810160405280929190818152602001828054612143906141bb565b80156121905780601f1061216557610100808354040283529160200191612190565b820191906000526020600020905b81548152906001019060200180831161217357829003601f168201915b50505050509080602801604051806080016040529081600082016040518060400160405290816000820154815260200160018201548152505081526020016002820160405180604001604052908160008201548152602001600182015481525050815260200160048201604051806040016040529081600082015481526020016001820154815250508152602001600682016040518060400160405290816000820154815260200160018201548152505081525050908060300160009054906101000a900473ffffffffffffffffffffffffffffffffffffffff1690508c565b606073__Functionality_________________________63e4214177848460006040518463ffffffff1660e01b81526004016122ae93929190615e2b565b600060405180830381865af41580156122cb573d6000803e3d6000fd5b505050506040513d6000823e3d601f19601f820116820180604052508101906122f49190615d83565b905092915050565b60006001600083815260200190815260200160002060009054906101000a900473ffffffffffffffffffffffffffffffffffffffff169050919050565b60016020528060005260406000206000915054906101000a900473ffffffffffffffffffffffffffffffffffffffff1681565b6000600260003373ffffffffffffffffffffffffffffffffffffffff1673ffffffffffffffffffffffffffffffffffffffff16815260200190815260200160002054905090565b606073__Functionality_________________________634690b82c8360006040518363ffffffff1660e01b81526004016123ef929190615dfb565b600060405180830381865af415801561240c573d6000803e3d6000fd5b505050506040513d6000823e3d601f19601f820116820180604052508101906124359190615d83565b9050919050565b828054828255906000526020600020908101928215612484579160200282015b828111156124835782518290816124739190614398565b509160200191906001019061245c565b5b5090506124919190612495565b5090565b5b808211156124b557600081816124ac91906124b9565b50600101612496565b5090565b5080546124c5906141bb565b6000825580601f106124d757506124f6565b601f0160209004906000526020600020908101906124f591906124f9565b5b50565b5b808211156125125760008160009055506001016124fa565b5090565b6000604051905090565b600080fd5b600080fd5b600080fd5b600080fd5b6000601f19601f8301169050919050565b7f4e487b7100000000000000000000000000000000000000000000000000000000600052604160045260246000fd5b61257d82612534565b810181811067ffffffffffffffff8211171561259c5761259b612545565b5b80604052505050565b60006125af612516565b90506125bb8282612574565b919050565b600067ffffffffffffffff8211156125db576125da612545565b5b6125e482612534565b9050602081019050919050565b82818337600083830152505050565b600061261361260e846125c0565b6125a5565b90508281526020810184848401111561262f5761262e61252f565b5b61263a8482856125f1565b509392505050565b600082601f8301126126575761265661252a565b5b8135612667848260208601612600565b91505092915050565b600080fd5b600080fd5b6000606082840312156126905761268f612670565b5b61269a60606125a5565b9050600082013567ffffffffffffffff8111156126ba576126b9612675565b5b6126c684828501612642565b600083015250602082013567ffffffffffffffff8111156126ea576126e9612675565b5b6126f684828501612642565b602083015250604082013567ffffffffffffffff81111561271a57612719612675565b5b61272684828501612642565b60408301525092915050565b60006040828403121561274857612747612670565b5b61275260406125a5565b9050600082013567ffffffffffffffff81111561277257612771612675565b5b61277e84828501612642565b600083015250602082013567ffffffffffffffff8111156127a2576127a1612675565b5b6127ae84828501612642565b60208301525092915050565b600060c082840312156127d0576127cf612670565b5b6127da60c06125a5565b9050600082013567ffffffffffffffff8111156127fa576127f9612675565b5b61280684828501612642565b600083015250602082013567ffffffffffffffff81111561282a57612829612675565b5b61283684828501612642565b602083015250604082013567ffffffffffffffff81111561285a57612859612675565b5b61286684828501612642565b604083015250606082013567ffffffffffffffff81111561288a57612889612675565b5b61289684828501612642565b606083015250608082013567ffffffffffffffff8111156128ba576128b9612675565b5b6128c68482850161267a565b60808301525060a082013567ffffffffffffffff8111156128ea576128e9612675565b5b6128f684828501612732565b60a08301525092915050565b600067ffffffffffffffff82111561291d5761291c612545565b5b602082029050602081019050919050565b600080fd5b600061294661294184612902565b6125a5565b905080838252602082019050602084028301858111156129695761296861292e565b5b835b818110156129b057803567ffffffffffffffff81111561298e5761298d61252a565b5b80860161299b8982612642565b8552602085019450505060208101905061296b565b5050509392505050565b600082601f8301126129cf576129ce61252a565b5b81356129df848260208601612933565b91505092915050565b6000608082840312156129fe576129fd612670565b5b612a0860806125a5565b9050600082013567ffffffffffffffff811115612a2857612a27612675565b5b612a3484828501612642565b600083015250602082013567ffffffffffffffff811115612a5857612a57612675565b5b612a64848285016129ba565b602083015250604082013567ffffffffffffffff811115612a8857612a87612675565b5b612a9484828501612642565b604083015250606082013567ffffffffffffffff811115612ab857612ab7612675565b5b612ac484828501612642565b60608301525092915050565b600060608284031215612ae657612ae5612670565b5b612af060606125a5565b9050600082013567ffffffffffffffff811115612b1057612b0f612675565b5b612b1c84828501612642565b600083015250602082013567ffffffffffffffff811115612b4057612b3f612675565b5b612b4c84828501612642565b602083015250604082013567ffffffffffffffff811115612b7057612b6f612675565b5b612b7c848285016129e8565b60408301525092915050565b600060408284031215612b9e57612b9d612670565b5b612ba860406125a5565b9050600082013567ffffffffffffffff811115612bc857612bc7612675565b5b612bd484828501612642565b600083015250602082013567ffffffffffffffff811115612bf857612bf7612675565b5b612c0484828501612642565b60208301525092915050565b600060a08284031215612c2657612c25612670565b5b612c3060a06125a5565b9050600082013567ffffffffffffffff811115612c5057612c4f612675565b5b612c5c84828501612642565b600083015250602082013567ffffffffffffffff811115612c8057612c7f612675565b5b612c8c84828501612642565b602083015250604082013567ffffffffffffffff811115612cb057612caf612675565b5b612cbc84828501612642565b604083015250606082013567ffffffffffffffff811115612ce057612cdf612675565b5b612cec84828501612642565b606083015250608082013567ffffffffffffffff811115612d1057612d0f612675565b5b612d1c84828501612b88565b60808301525092915050565b60006101008284031215612d3f57612d3e612670565b5b612d4a6101006125a5565b9050600082013567ffffffffffffffff811115612d6a57612d69612675565b5b612d7684828501612642565b600083015250602082013567ffffffffffffffff811115612d9a57612d99612675565b5b612da684828501612642565b602083015250604082013567ffffffffffffffff811115612dca57612dc9612675565b5b612dd684828501612642565b604083015250606082013567ffffffffffffffff811115612dfa57612df9612675565b5b612e0684828501612642565b606083015250608082013567ffffffffffffffff811115612e2a57612e29612675565b5b612e3684828501612642565b60808301525060a082013567ffffffffffffffff811115612e5a57612e59612675565b5b612e6684828501612642565b60a08301525060c082013567ffffffffffffffff811115612e8a57612e89612675565b5b612e9684828501612c10565b60c08301525060e082013567ffffffffffffffff811115612eba57612eb9612675565b5b612ec684828501612642565b60e08301525092915050565b600060408284031215612ee857612ee7612670565b5b612ef260406125a5565b9050600082013567ffffffffffffffff811115612f1257612f11612675565b5b612f1e84828501612642565b600083015250602082013567ffffffffffffffff811115612f4257612f41612675565b5b612f4e84828501612d28565b60208301525092915050565b600060408284031215612f7057612f6f612670565b5b612f7a60406125a5565b9050600082013567ffffffffffffffff811115612f9a57612f99612675565b5b612fa684828501612642565b600083015250602082013567ffffffffffffffff811115612fca57612fc9612675565b5b612fd684828501612642565b60208301525092915050565b600060608284031215612ff857612ff7612670565b5b61300260606125a5565b9050600082013567ffffffffffffffff81111561302257613021612675565b5b61302e84828501612642565b600083015250602082013567ffffffffffffffff81111561305257613051612675565b5b61305e84828501612642565b602083015250604082013567ffffffffffffffff81111561308257613081612675565b5b61308e84828501612f5a565b60408301525092915050565b6000819050919050565b6130ad8161309a565b81146130b857600080fd5b50565b6000813590506130ca816130a4565b92915050565b6000604082840312156130e6576130e5612670565b5b6130f060406125a5565b90506000613100848285016130bb565b6000830152506020613114848285016130bb565b60208301525092915050565b6000610100828403121561313757613136612670565b5b61314160806125a5565b90506000613151848285016130d0565b6000830152506040613165848285016130d0565b6020830152506080613179848285016130d0565b60408301525060c061318d848285016130d0565b60608301525092915050565b6000806000806000806000806000806102208b8d0312156131bd576131bc612520565b5b60008b013567ffffffffffffffff8111156131db576131da612525565b5b6131e78d828e01612642565b9a505060208b013567ffffffffffffffff81111561320857613207612525565b5b6132148d828e016127ba565b99505060408b013567ffffffffffffffff81111561323557613234612525565b5b6132418d828e01612ad0565b98505060608b013567ffffffffffffffff81111561326257613261612525565b5b61326e8d828e01612642565b97505060808b013567ffffffffffffffff81111561328f5761328e612525565b5b61329b8d828e01612ed2565b96505060a08b013567ffffffffffffffff8111156132bc576132bb612525565b5b6132c88d828e01612642565b95505060c08b013567ffffffffffffffff8111156132e9576132e8612525565b5b6132f58d828e01612fe2565b94505060e08b013567ffffffffffffffff81111561331657613315612525565b5b6133228d828e01612f5a565b9350506101008b013567ffffffffffffffff81111561334457613343612525565b5b6133508d828e01612642565b9250506101206133628d828e01613120565b9150509295989b9194979a5092959850565b60006020828403121561338a57613389612520565b5b600082013567ffffffffffffffff8111156133a8576133a7612525565b5b6133b484828501612642565b91505092915050565b600081519050919050565b600082825260208201905092915050565b6000819050602082019050919050565b6000819050919050565b6133fc816133e9565b82525050565b600081519050919050565b600082825260208201905092915050565b60005b8381101561343c578082015181840152602081019050613421565b60008484015250505050565b600061345382613402565b61345d818561340d565b935061346d81856020860161341e565b61347681612534565b840191505092915050565b6000606083016000830151848203600086015261349e8282613448565b915050602083015184820360208601526134b88282613448565b915050604083015184820360408601526134d28282613448565b9150508091505092915050565b600060408301600083015184820360008601526134fc8282613448565b915050602083015184820360208601526135168282613448565b9150508091505092915050565b600060c08301600083015184820360008601526135408282613448565b9150506020830151848203602086015261355a8282613448565b915050604083015184820360408601526135748282613448565b9150506060830151848203606086015261358e8282613448565b915050608083015184820360808601526135a88282613481565b91505060a083015184820360a08601526135c282826134df565b9150508091505092915050565b600081519050919050565b600082825260208201905092915050565b6000819050602082019050919050565b60006136078383613448565b905092915050565b6000602082019050919050565b6000613627826135cf565b61363181856135da565b935083602082028501613643856135eb565b8060005b8581101561367f578484038952815161366085826135fb565b945061366b8361360f565b925060208a01995050600181019050613647565b50829750879550505050505092915050565b600060808301600083015184820360008601526136ae8282613448565b915050602083015184820360208601526136c8828261361c565b915050604083015184820360408601526136e28282613448565b915050606083015184820360608601526136fc8282613448565b9150508091505092915050565b600060608301600083015184820360008601526137268282613448565b915050602083015184820360208601526137408282613448565b9150506040830151848203604086015261375a8282613691565b9150508091505092915050565b600060408301600083015184820360008601526137848282613448565b9150506020830151848203602086015261379e8282613448565b9150508091505092915050565b600060a08301600083015184820360008601526137c88282613448565b915050602083015184820360208601526137e28282613448565b915050604083015184820360408601526137fc8282613448565b915050606083015184820360608601526138168282613448565b915050608083015184820360808601526138308282613767565b9150508091505092915050565b600061010083016000830151848203600086015261385b8282613448565b915050602083015184820360208601526138758282613448565b9150506040830151848203604086015261388f8282613448565b915050606083015184820360608601526138a98282613448565b915050608083015184820360808601526138c38282613448565b91505060a083015184820360a08601526138dd8282613448565b91505060c083015184820360c08601526138f782826137ab565b91505060e083015184820360e08601526139118282613448565b9150508091505092915050565b6000604083016000830151848203600086015261393b8282613448565b91505060208301518482036020860152613955828261383d565b9150508091505092915050565b6000604083016000830151848203600086015261397f8282613448565b915050602083015184820360208601526139998282613448565b9150508091505092915050565b600060608301600083015184820360008601526139c38282613448565b915050602083015184820360208601526139dd8282613448565b915050604083015184820360408601526139f78282613962565b9150508091505092915050565b613a0d8161309a565b82525050565b604082016000820151613a296000850182613a04565b506020820151613a3c6020850182613a04565b50505050565b61010082016000820151613a596000850182613a13565b506020820151613a6c6040850182613a13565b506040820151613a7f6080850182613a13565b506060820151613a9260c0850182613a13565b50505050565b600073ffffffffffffffffffffffffffffffffffffffff82169050919050565b6000613ac382613a98565b9050919050565b613ad381613ab8565b82525050565b600061026083016000830151613af260008601826133f3565b5060208301518482036020860152613b0a8282613448565b91505060408301518482036040860152613b248282613523565b91505060608301518482036060860152613b3e8282613709565b91505060808301518482036080860152613b588282613448565b91505060a083015184820360a0860152613b72828261391e565b91505060c083015184820360c0860152613b8c8282613448565b91505060e083015184820360e0860152613ba682826139a6565b915050610100830151848203610100860152613bc28282613962565b915050610120830151848203610120860152613bde8282613448565b915050610140830151613bf5610140860182613a42565b50610160830151613c0a610240860182613aca565b508091505092915050565b6000613c218383613ad9565b905092915050565b6000602082019050919050565b6000613c41826133bd565b613c4b81856133c8565b935083602082028501613c5d856133d9565b8060005b85811015613c995784840389528151613c7a8582613c15565b9450613c8583613c29565b925060208a01995050600181019050613c61565b50829750879550505050505092915050565b60006020820190508181036000830152613cc58184613c36565b905092915050565b600060408284031215613ce357613ce2612520565b5b6000613cf1848285016130d0565b91505092915050565b613d03816133e9565b8114613d0e57600080fd5b50565b600081359050613d2081613cfa565b92915050565b600060208284031215613d3c57613d3b612520565b5b6000613d4a84828501613d11565b91505092915050565b613d5c816133e9565b82525050565b600082825260208201905092915050565b6000613d7e82613402565b613d888185613d62565b9350613d9881856020860161341e565b613da181612534565b840191505092915050565b600060c0830160008301518482036000860152613dc98282613448565b91505060208301518482036020860152613de38282613448565b91505060408301518482036040860152613dfd8282613448565b91505060608301518482036060860152613e178282613448565b91505060808301518482036080860152613e318282613481565b91505060a083015184820360a0860152613e4b82826134df565b9150508091505092915050565b60006060830160008301518482036000860152613e758282613448565b91505060208301518482036020860152613e8f8282613448565b91505060408301518482036040860152613ea98282613691565b9150508091505092915050565b60006040830160008301518482036000860152613ed38282613448565b91505060208301518482036020860152613eed828261383d565b9150508091505092915050565b60006060830160008301518482036000860152613f178282613448565b91505060208301518482036020860152613f318282613448565b91505060408301518482036040860152613f4b8282613962565b9150508091505092915050565b60006040830160008301518482036000860152613f758282613448565b91505060208301518482036020860152613f8f8282613448565b9150508091505092915050565b61010082016000820151613fb36000850182613a13565b506020820151613fc66040850182613a13565b506040820151613fd96080850182613a13565b506060820151613fec60c0850182613a13565b50505050565b613ffb81613ab8565b82525050565b600061026082019050614017600083018f613d53565b8181036020830152614029818e613d73565b9050818103604083015261403d818d613dac565b90508181036060830152614051818c613e58565b90508181036080830152614065818b613d73565b905081810360a0830152614079818a613eb6565b905081810360c083015261408d8189613d73565b905081810360e08301526140a18188613efa565b90508181036101008301526140b68187613f58565b90508181036101208301526140cb8186613d73565b90506140db610140830185613f9c565b6140e9610240830184613ff2565b9d9c50505050505050505050505050565b6000806060838503121561411157614110612520565b5b600083013567ffffffffffffffff81111561412f5761412e612525565b5b61413b85828601612642565b925050602061414c858286016130d0565b9150509250929050565b600060208201905061416b6000830184613ff2565b92915050565b60006020820190506141866000830184613d53565b92915050565b7f4e487b7100000000000000000000000000000000000000000000000000000000600052602260045260246000fd5b600060028204905060018216806141d357607f821691505b6020821081036141e6576141e561418c565b5b50919050565b60008190508160005260206000209050919050565b60006020601f8301049050919050565b600082821b905092915050565b60006008830261424e7fffffffffffffffffffffffffffffffffffffffffffffffffffffffffffffffff82614211565b6142588683614211565b95508019841693508086168417925050509392505050565b6000819050919050565b600061429561429061428b846133e9565b614270565b6133e9565b9050919050565b6000819050919050565b6142af8361427a565b6142c36142bb8261429c565b84845461421e565b825550505050565b600090565b6142d86142cb565b6142e38184846142a6565b505050565b5b81811015614307576142fc6000826142d0565b6001810190506142e9565b5050565b601f82111561434c5761431d816141ec565b61432684614201565b81016020851015614335578190505b61434961434185614201565b8301826142e8565b50505b505050565b600082821c905092915050565b600061436f60001984600802614351565b1980831691505092915050565b6000614388838361435e565b9150826002028217905092915050565b6143a182613402565b67ffffffffffffffff8111156143ba576143b9612545565b5b6143c482546141bb565b6143cf82828561430b565b600060209050601f83116001811461440257600084156143f0578287015190505b6143fa858261437c565b865550614462565b601f198416614410866141ec565b60005b8281101561443857848901518255600182019150602085019450602081019050614413565b868310156144555784890151614451601f89168261435e565b8355505b6001600288020188555050505b505050505050565b7f4e487b7100000000000000000000000000000000000000000000000000000000600052601160045260246000fd5b60006144a4826133e9565b91507fffffffffffffffffffffffffffffffffffffffffffffffffffffffffffffffff82036144d6576144d561446a565b5b600182019050919050565b600060408201905081810360008301526144fb8185613d73565b9050818103602083015261450f8184613d73565b90509392505050565b600082825260208201905092915050565b600061453482613402565b61453e8185614518565b935061454e81856020860161341e565b61455781612534565b840191505092915050565b600081549050919050565b600082825260208201905092915050565b60008190508160005260206000209050919050565b60008160001c9050919050565b6000819050919050565b60006145bd6145b883614593565b6145a0565b9050919050565b6145cd816133e9565b82525050565b600082825260208201905092915050565b600081546145f1816141bb565b6145fb81866145d3565b94506001821660008114614616576001811461462c5761465f565b60ff19831686528115156020028601935061465f565b614635856141ec565b60005b8381101561465757815481890152600182019150602081019050614638565b808801955050505b50505092915050565b6000606083016000808401858303600087015261468583826145e4565b92505060018401858303602087015261469e83826145e4565b9250506002840185830360408701526146b783826145e4565b925050819250505092915050565b600060408301600080840185830360008701526146e283826145e4565b9250506001840185830360208701526146fb83826145e4565b925050819250505092915050565b600060c083016000808401858303600087015261472683826145e4565b92505060018401858303602087015261473f83826145e4565b92505060028401858303604087015261475883826145e4565b92505060038401858303606087015261477183826145e4565b92505060048401858303608087015261478a8382614668565b9250506007840185830360a08701526147a383826146c5565b925050819250505092915050565b600081549050919050565b600082825260208201905092915050565b60008190508160005260206000209050919050565b60006147ee83836145e4565b905092915050565b6000600182019050919050565b600061480e826147b1565b61481881856147bc565b93508360208202850161482a856147cd565b8060005b858110156148655784840389528161484685826147e2565b9450614851836147f6565b925060208a0199505060018101905061482e565b50829750879550505050505092915050565b6000608083016000808401858303600087015261489483826145e4565b9250506001840185830360208701526148ad8382614803565b9250506002840185830360408701526148c683826145e4565b9250506003840185830360608701526148df83826145e4565b925050819250505092915050565b6000606083016000808401858303600087015261490a83826145e4565b92505060018401858303602087015261492383826145e4565b92505060028401858303604087015261493c8382614877565b925050819250505092915050565b6000604083016000808401858303600087015261496783826145e4565b92505060018401858303602087015261498083826145e4565b925050819250505092915050565b600060a08301600080840185830360008701526149ab83826145e4565b9250506001840185830360208701526149c483826145e4565b9250506002840185830360408701526149dd83826145e4565b9250506003840185830360608701526149f683826145e4565b925050600484018583036080870152614a0f838261494a565b925050819250505092915050565b6000610100830160008084018583036000870152614a3b83826145e4565b925050600184018583036020870152614a5483826145e4565b925050600284018583036040870152614a6d83826145e4565b925050600384018583036060870152614a8683826145e4565b925050600484018583036080870152614a9f83826145e4565b9250506005840185830360a0870152614ab883826145e4565b9250506006840185830360c0870152614ad1838261498e565b925050600c840185830360e0870152614aea83826145e4565b925050819250505092915050565b60006040830160008084018583036000870152614b1583826145e4565b925050600184018583036020870152614b2e8382614a1d565b925050819250505092915050565b60006040830160008084018583036000870152614b5983826145e4565b925050600184018583036020870152614b7283826145e4565b925050819250505092915050565b60006060830160008084018583036000870152614b9d83826145e4565b925050600184018583036020870152614bb683826145e4565b925050600284018583036040870152614bcf8382614b3c565b925050819250505092915050565b6000819050919050565b6000614bfa614bf583614593565b614bdd565b9050919050565b614c0a8161309a565b82525050565b604082016000808301549050614c2581614be7565b614c326000860182614c01565b5060018301549050614c4381614be7565b614c506020860182614c01565b5050505050565b61010082016000808301614c6e6000860182614c10565b5060028301614c806040860182614c10565b5060048301614c926080860182614c10565b5060068301614ca460c0860182614c10565b5050505050565b600073ffffffffffffffffffffffffffffffffffffffff82169050919050565b6000614cde614cd983614593565b614cab565b9050919050565b614cee81613ab8565b82525050565b600061026083016000808401549050614d0c816145aa565b614d1960008701826145c4565b50600184018583036020870152614d3083826145e4565b925050600284018583036040870152614d498382614709565b925050600b84018583036060870152614d6283826148ed565b925050601184018583036080870152614d7b83826145e4565b9250506012840185830360a0870152614d948382614af8565b9250506020840185830360c0870152614dad83826145e4565b9250506021840185830360e0870152614dc68382614b80565b92505060258401858303610100870152614de08382614b3c565b92505060278401858303610120870152614dfa83826145e4565b92505060288401614e0f610140870182614c57565b5060308401549050614e2081614ccb565b614e2e610240870182614ce5565b50819250505092915050565b6000614e468383614cf4565b905092915050565b6000603182019050919050565b6000614e6682614562565b614e70818561456d565b935083602082028501614e828561457e565b8060005b85811015614ebd57848403895281614e9e8582614e3a565b9450614ea983614e4e565b925060208a01995050600181019050614e86565b50829750879550505050505092915050565b60006040820190508181036000830152614ee98185614529565b90508181036020830152614efd8184614e5b565b90509392505050565b600067ffffffffffffffff821115614f2157614f20612545565b5b602082029050602081019050919050565b600081519050614f4181613cfa565b92915050565b6000614f5a614f55846125c0565b6125a5565b905082815260208101848484011115614f7657614f7561252f565b5b614f8184828561341e565b509392505050565b600082601f830112614f9e57614f9d61252a565b5b8151614fae848260208601614f47565b91505092915050565b600060608284031215614fcd57614fcc612670565b5b614fd760606125a5565b9050600082015167ffffffffffffffff811115614ff757614ff6612675565b5b61500384828501614f89565b600083015250602082015167ffffffffffffffff81111561502757615026612675565b5b61503384828501614f89565b602083015250604082015167ffffffffffffffff81111561505757615056612675565b5b61506384828501614f89565b60408301525092915050565b60006040828403121561508557615084612670565b5b61508f60406125a5565b9050600082015167ffffffffffffffff8111156150af576150ae612675565b5b6150bb84828501614f89565b600083015250602082015167ffffffffffffffff8111156150df576150de612675565b5b6150eb84828501614f89565b60208301525092915050565b600060c0828403121561510d5761510c612670565b5b61511760c06125a5565b9050600082015167ffffffffffffffff81111561513757615136612675565b5b61514384828501614f89565b600083015250602082015167ffffffffffffffff81111561516757615166612675565b5b61517384828501614f89565b602083015250604082015167ffffffffffffffff81111561519757615196612675565b5b6151a384828501614f89565b604083015250606082015167ffffffffffffffff8111156151c7576151c6612675565b5b6151d384828501614f89565b606083015250608082015167ffffffffffffffff8111156151f7576151f6612675565b5b61520384828501614fb7565b60808301525060a082015167ffffffffffffffff81111561522757615226612675565b5b6152338482850161506f565b60a08301525092915050565b600061525261524d84612902565b6125a5565b905080838252602082019050602084028301858111156152755761527461292e565b5b835b818110156152bc57805167ffffffffffffffff81111561529a5761529961252a565b5b8086016152a78982614f89565b85526020850194505050602081019050615277565b5050509392505050565b600082601f8301126152db576152da61252a565b5b81516152eb84826020860161523f565b91505092915050565b60006080828403121561530a57615309612670565b5b61531460806125a5565b9050600082015167ffffffffffffffff81111561533457615333612675565b5b61534084828501614f89565b600083015250602082015167ffffffffffffffff81111561536457615363612675565b5b615370848285016152c6565b602083015250604082015167ffffffffffffffff81111561539457615393612675565b5b6153a084828501614f89565b604083015250606082015167ffffffffffffffff8111156153c4576153c3612675565b5b6153d084828501614f89565b60608301525092915050565b6000606082840312156153f2576153f1612670565b5b6153fc60606125a5565b9050600082015167ffffffffffffffff81111561541c5761541b612675565b5b61542884828501614f89565b600083015250602082015167ffffffffffffffff81111561544c5761544b612675565b5b61545884828501614f89565b602083015250604082015167ffffffffffffffff81111561547c5761547b612675565b5b615488848285016152f4565b60408301525092915050565b6000604082840312156154aa576154a9612670565b5b6154b460406125a5565b9050600082015167ffffffffffffffff8111156154d4576154d3612675565b5b6154e084828501614f89565b600083015250602082015167ffffffffffffffff81111561550457615503612675565b5b61551084828501614f89565b60208301525092915050565b600060a0828403121561553257615531612670565b5b61553c60a06125a5565b9050600082015167ffffffffffffffff81111561555c5761555b612675565b5b61556884828501614f89565b600083015250602082015167ffffffffffffffff81111561558c5761558b612675565b5b61559884828501614f89565b602083015250604082015167ffffffffffffffff8111156155bc576155bb612675565b5b6155c884828501614f89565b604083015250606082015167ffffffffffffffff8111156155ec576155eb612675565b5b6155f884828501614f89565b606083015250608082015167ffffffffffffffff81111561561c5761561b612675565b5b61562884828501615494565b60808301525092915050565b6000610100828403121561564b5761564a612670565b5b6156566101006125a5565b9050600082015167ffffffffffffffff81111561567657615675612675565b5b61568284828501614f89565b600083015250602082015167ffffffffffffffff8111156156a6576156a5612675565b5b6156b284828501614f89565b602083015250604082015167ffffffffffffffff8111156156d6576156d5612675565b5b6156e284828501614f89565b604083015250606082015167ffffffffffffffff81111561570657615705612675565b5b61571284828501614f89565b606083015250608082015167ffffffffffffffff81111561573657615735612675565b5b61574284828501614f89565b60808301525060a082015167ffffffffffffffff81111561576657615765612675565b5b61577284828501614f89565b60a08301525060c082015167ffffffffffffffff81111561579657615795612675565b5b6157a28482850161551c565b60c08301525060e082015167ffffffffffffffff8111156157c6576157c5612675565b5b6157d284828501614f89565b60e08301525092915050565b6000604082840312156157f4576157f3612670565b5b6157fe60406125a5565b9050600082015167ffffffffffffffff81111561581e5761581d612675565b5b61582a84828501614f89565b600083015250602082015167ffffffffffffffff81111561584e5761584d612675565b5b61585a84828501615634565b60208301525092915050565b60006040828403121561587c5761587b612670565b5b61588660406125a5565b9050600082015167ffffffffffffffff8111156158a6576158a5612675565b5b6158b284828501614f89565b600083015250602082015167ffffffffffffffff8111156158d6576158d5612675565b5b6158e284828501614f89565b60208301525092915050565b60006060828403121561590457615903612670565b5b61590e60606125a5565b9050600082015167ffffffffffffffff81111561592e5761592d612675565b5b61593a84828501614f89565b600083015250602082015167ffffffffffffffff81111561595e5761595d612675565b5b61596a84828501614f89565b602083015250604082015167ffffffffffffffff81111561598e5761598d612675565b5b61599a84828501615866565b60408301525092915050565b6000815190506159b5816130a4565b92915050565b6000604082840312156159d1576159d0612670565b5b6159db60406125a5565b905060006159eb848285016159a6565b60008301525060206159ff848285016159a6565b60208301525092915050565b60006101008284031215615a2257615a21612670565b5b615a2c60806125a5565b90506000615a3c848285016159bb565b6000830152506040615a50848285016159bb565b6020830152506080615a64848285016159bb565b60408301525060c0615a78848285016159bb565b60608301525092915050565b615a8d81613ab8565b8114615a9857600080fd5b50565b600081519050615aaa81615a84565b92915050565b60006102608284031215615ac757615ac6612670565b5b615ad26101806125a5565b90506000615ae284828501614f32565b600083015250602082015167ffffffffffffffff811115615b0657615b05612675565b5b615b1284828501614f89565b602083015250604082015167ffffffffffffffff811115615b3657615b35612675565b5b615b42848285016150f7565b604083015250606082015167ffffffffffffffff811115615b6657615b65612675565b5b615b72848285016153dc565b606083015250608082015167ffffffffffffffff811115615b9657615b95612675565b5b615ba284828501614f89565b60808301525060a082015167ffffffffffffffff811115615bc657615bc5612675565b5b615bd2848285016157de565b60a08301525060c082015167ffffffffffffffff811115615bf657615bf5612675565b5b615c0284828501614f89565b60c08301525060e082015167ffffffffffffffff811115615c2657615c25612675565b5b615c32848285016158ee565b60e08301525061010082015167ffffffffffffffff811115615c5757615c56612675565b5b615c6384828501615866565b6101008301525061012082015167ffffffffffffffff811115615c8957615c88612675565b5b615c9584828501614f89565b61012083015250610140615cab84828501615a0b565b61014083015250610240615cc184828501615a9b565b6101608301525092915050565b6000615ce1615cdc84614f06565b6125a5565b90508083825260208201905060208402830185811115615d0457615d0361292e565b5b835b81811015615d4b57805167ffffffffffffffff811115615d2957615d2861252a565b5b808601615d368982615ab0565b85526020850194505050602081019050615d06565b5050509392505050565b600082601f830112615d6a57615d6961252a565b5b8151615d7a848260208601615cce565b91505092915050565b600060208284031215615d9957615d98612520565b5b600082015167ffffffffffffffff811115615db757615db6612525565b5b615dc384828501615d55565b91505092915050565b604082016000820151615de26000850182614c01565b506020820151615df56020850182614c01565b50505050565b6000606082019050615e106000830185615dcc565b8181036040830152615e228184614e5b565b90509392505050565b60006080820190508181036000830152615e458186614529565b9050615e546020830185615dcc565b8181036060830152615e668184614e5b565b905094935050505056fea2646970667358221220c736c1eed3e1b0705508526a1029983fb83778538100b1de4ae8b08396c44e4964736f6c63430008110033",
  "immutableReferences": {},
  "source": "// SPDX-License-Identifier: UNLICENSED\r\npragma solidity ^0.8.17;\r\n\r\nimport \"./SharedStructs.sol\";\r\nimport \"./Functionality.sol\";\r\n\r\n/// @title An API Directory for API producers and consumers focused on Smart Cities\r\n/// @author Thomas A. Pappas\r\n/// @notice This Contract allows API producers to register their Smart City API and consumers to search for them based on category and spatial position\r\n/// @dev This Contract is dependent on the Functionality and SharedStructs libraries and uses functions and structures from them\r\ncontract ApiDirectory {\r\n    \r\n    /// @notice Fires each time a new API is registered \r\n    event NewAPIRegistered(string title, string category);\r\n    /// @notice Fires upon a payable function call and the payment of API producers from a consumer\r\n    event GotPaid(Functionality.API[] returnApiListing);\r\n\r\n    /// @notice The array that holds all the APIs registered\r\n    /// @dev Has a dynamic length as an array stored in storage\r\n    Functionality.API[] public apiListings;\r\n\r\n    /// @notice Maps the id of an API to the producer address\r\n    mapping (uint => address) public apiToProducer; \r\n    /// @notice Maps the producer address to the total count of APIs they produced\r\n    mapping (address => uint) producerApiCount;\r\n \r\n    /// @notice Register a new API based on the OpenAPI-Swagger specification\r\n    /// @dev The non string parameter data types are inherited from the SharedStructs library. Emits event\r\n    function createApi(string memory _openapi, SharedStructs.Info memory _info, \r\n    SharedStructs.Server memory _servers, string memory _paths, SharedStructs.Security memory _security, \r\n    string memory _components, SharedStructs.Tags memory _tags, SharedStructs.ExternalDocs memory _externalDocs, \r\n    string memory _x_category, SharedStructs.Coverage memory _x_coverage) \r\n    public {\r\n        uint id = apiListings.length;\r\n        apiListings.push(Functionality.API(id, _openapi, _info, _servers, _paths, _security, \r\n        _components, _tags, _externalDocs, _x_category, _x_coverage, msg.sender)); \r\n        apiToProducer[id] = msg.sender;\r\n        producerApiCount[msg.sender]++;\r\n        emit NewAPIRegistered(_info.title, _x_category);\r\n    }\r\n\r\n    function getApiCount() public view returns (uint) {\r\n        return producerApiCount[msg.sender];\r\n    }\r\n\r\n    function getOwnerOf(uint _id) public view returns (address) {\r\n        return apiToProducer[_id];\r\n    }\r\n\r\n    /// @notice Finds the APIs that are used for the category provided\r\n    /// @dev The subset of apiListings that is returned (array) is stored in memory\r\n    /// @param _x_category The category the API consumer provides\r\n    /// @return returnApiListing The array of the APIs that have the specified category \r\n    function getApiWithCategory(string memory _x_category) public view returns (Functionality.API[] memory) {\r\n        return(Functionality.getApiOnCategory(_x_category, apiListings));\r\n    }\r\n\r\n    /// @notice Same functionality as the getApiWithCategory(), but searches based upon coordinates (coverage)\r\n    /// @dev Computes if the point given is inside a API coverage area and returns the APIs\r\n    /// @param point The coordinate provided to which we want to find APIs. Has lat and lng fields. The values are int type because Solidity does not support floating-point numbers \r\n    function getApiWithCoverage(SharedStructs.Coordinate memory point) public view returns (Functionality.API[] memory){\r\n        return (Functionality.getApiOnCoverage(point, apiListings));\r\n    } \r\n\r\n    /// @notice Compines the search based upon category and coverage\r\n    function getApiWithCatAndCov(string memory _x_category, SharedStructs.Coordinate memory point) public view returns (Functionality.API[] memory) {\r\n        return (Functionality.getApiOnCatAndCov(_x_category, point, apiListings));\r\n    }\r\n\r\n    /// @notice Extends the above functionality of finding APIs based on coordinates with the payment of the API producers which APIs are returned\r\n    /// @dev Requires 3 ether from the caller to proceede execution (payment). Calls function that pays the producers and returns APIs and then - \r\n    /// @dev -returns the data in the form of event becase it is a payable function and cannot have return statement. \r\n    function getApiWithCoveragePayable(SharedStructs.Coordinate memory point) public payable {\r\n        require(msg.value == 3 ether);\r\n        emit GotPaid(Functionality.getApiOnCoveragePayable(point, apiListings));\r\n    }\r\n}\r\n\r\n\r\n\r\n\r\n\r\n",
  "sourcePath": "C:\\Users\\Tomas\\Documents\\ETH-dev\\ApiDirectory\\contracts\\ApiDirectory.sol",
  "compiler": {
    "name": "solc",
    "version": "0.8.17+commit.8df45f5f.Emscripten.clang"
  },
  "schemaVersion": "3.4.11",
  "updatedAt": "2023-02-12T20:53:26.572Z",
  "networkType": "ethereum",
  "devdoc": {
    "author": "Thomas A. Pappas",
    "details": "This Contract is dependent on the Functionality and SharedStructs libraries and uses functions and structures from them",
    "kind": "dev",
    "methods": {
      "createApi(string,(string,string,string,string,(string,string,string),(string,string)),(string,string,(string,string[],string,string)),string,(string,(string,string,string,string,string,string,(string,string,string,string,(string,string)),string)),string,(string,string,(string,string)),(string,string),string,((int256,int256),(int256,int256),(int256,int256),(int256,int256)))": {
        "details": "The non string parameter data types are inherited from the SharedStructs library. Emits event"
      },
      "getApiWithCategory(string)": {
        "details": "The subset of apiListings that is returned (array) is stored in memory",
        "params": {
          "_x_category": "The category the API consumer provides"
        },
        "returns": {
          "_0": "returnApiListing The array of the APIs that have the specified category "
        }
      },
      "getApiWithCoverage((int256,int256))": {
        "details": "Computes if the point given is inside a API coverage area and returns the APIs",
        "params": {
          "point": "The coordinate provided to which we want to find APIs. Has lat and lng fields. The values are int type because Solidity does not support floating-point numbers "
        }
      },
      "getApiWithCoveragePayable((int256,int256))": {
        "details": "Requires 3 ether from the caller to proceede execution (payment). Calls function that pays the producers and returns APIs and then - -returns the data in the form of event becase it is a payable function and cannot have return statement. "
      }
    },
    "stateVariables": {
      "apiListings": {
        "details": "Has a dynamic length as an array stored in storage"
      }
    },
    "title": "An API Directory for API producers and consumers focused on Smart Cities",
    "version": 1
  },
  "userdoc": {
    "events": {
      "GotPaid((uint256,string,(string,string,string,string,(string,string,string),(string,string)),(string,string,(string,string[],string,string)),string,(string,(string,string,string,string,string,string,(string,string,string,string,(string,string)),string)),string,(string,string,(string,string)),(string,string),string,((int256,int256),(int256,int256),(int256,int256),(int256,int256)),address)[])": {
        "notice": "Fires upon a payable function call and the payment of API producers from a consumer"
      },
      "NewAPIRegistered(string,string)": {
        "notice": "Fires each time a new API is registered "
      }
    },
    "kind": "user",
    "methods": {
      "apiListings(uint256)": {
        "notice": "The array that holds all the APIs registered"
      },
      "apiToProducer(uint256)": {
        "notice": "Maps the id of an API to the producer address"
      },
      "createApi(string,(string,string,string,string,(string,string,string),(string,string)),(string,string,(string,string[],string,string)),string,(string,(string,string,string,string,string,string,(string,string,string,string,(string,string)),string)),string,(string,string,(string,string)),(string,string),string,((int256,int256),(int256,int256),(int256,int256),(int256,int256)))": {
        "notice": "Register a new API based on the OpenAPI-Swagger specification"
      },
      "getApiWithCatAndCov(string,(int256,int256))": {
        "notice": "Compines the search based upon category and coverage"
      },
      "getApiWithCategory(string)": {
        "notice": "Finds the APIs that are used for the category provided"
      },
      "getApiWithCoverage((int256,int256))": {
        "notice": "Same functionality as the getApiWithCategory(), but searches based upon coordinates (coverage)"
      },
      "getApiWithCoveragePayable((int256,int256))": {
        "notice": "Extends the above functionality of finding APIs based on coordinates with the payment of the API producers which APIs are returned"
      }
    },
    "notice": "This Contract allows API producers to register their Smart City API and consumers to search for them based on category and spatial position",
    "version": 1
  }
}