{
  "contractName": "Functionality",
  "abi": [
    {
      "inputs": [
        {
          "internalType": "string",
          "name": "_x_category",
          "type": "string"
        },
        {
          "components": [
            {
              "internalType": "uint256",
              "name": "id",
              "type": "uint256"
            },
            {
              "internalType": "string",
              "name": "openapi",
              "type": "string"
            },
            {
              "components": [
                {
                  "internalType": "string",
                  "name": "version",
                  "type": "string"
                },
                {
                  "internalType": "string",
                  "name": "title",
                  "type": "string"
                },
                {
                  "internalType": "string",
                  "name": "description",
                  "type": "string"
                },
                {
                  "internalType": "string",
                  "name": "termsOfService",
                  "type": "string"
                },
                {
                  "components": [
                    {
                      "internalType": "string",
                      "name": "name",
                      "type": "string"
                    },
                    {
                      "internalType": "string",
                      "name": "url",
                      "type": "string"
                    },
                    {
                      "internalType": "string",
                      "name": "email",
                      "type": "string"
                    }
                  ],
                  "internalType": "struct SharedStructs.Contact",
                  "name": "contact",
                  "type": "tuple"
                },
                {
                  "components": [
                    {
                      "internalType": "string",
                      "name": "name",
                      "type": "string"
                    },
                    {
                      "internalType": "string",
                      "name": "url",
                      "type": "string"
                    }
                  ],
                  "internalType": "struct SharedStructs.Licence",
                  "name": "license",
                  "type": "tuple"
                }
              ],
              "internalType": "struct SharedStructs.Info",
              "name": "info",
              "type": "tuple"
            },
            {
              "components": [
                {
                  "internalType": "string",
                  "name": "url",
                  "type": "string"
                },
                {
                  "internalType": "string",
                  "name": "description",
                  "type": "string"
                },
                {
                  "components": [
                    {
                      "internalType": "string",
                      "name": "name",
                      "type": "string"
                    },
                    {
                      "internalType": "string[]",
                      "name": "server_enum",
                      "type": "string[]"
                    },
                    {
                      "internalType": "string",
                      "name": "description",
                      "type": "string"
                    },
                    {
                      "internalType": "string",
                      "name": "server_default",
                      "type": "string"
                    }
                  ],
                  "internalType": "struct SharedStructs.ServerVariableObject",
                  "name": "variables",
                  "type": "tuple"
                }
              ],
              "internalType": "struct SharedStructs.Server",
              "name": "servers",
              "type": "tuple"
            },
            {
              "internalType": "string",
              "name": "paths",
              "type": "string"
            },
            {
              "components": [
                {
                  "internalType": "string",
                  "name": "name",
                  "type": "string"
                },
                {
                  "components": [
                    {
                      "internalType": "string",
                      "name": "security_type",
                      "type": "string"
                    },
                    {
                      "internalType": "string",
                      "name": "description",
                      "type": "string"
                    },
                    {
                      "internalType": "string",
                      "name": "name",
                      "type": "string"
                    },
                    {
                      "internalType": "string",
                      "name": "security_in",
                      "type": "string"
                    },
                    {
                      "internalType": "string",
                      "name": "scheme",
                      "type": "string"
                    },
                    {
                      "internalType": "string",
                      "name": "bearerFormat",
                      "type": "string"
                    },
                    {
                      "components": [
                        {
                          "internalType": "string",
                          "name": "flow_type",
                          "type": "string"
                        },
                        {
                          "internalType": "string",
                          "name": "authorizationUrl",
                          "type": "string"
                        },
                        {
                          "internalType": "string",
                          "name": "tokenUrl",
                          "type": "string"
                        },
                        {
                          "internalType": "string",
                          "name": "refreshUrl",
                          "type": "string"
                        },
                        {
                          "components": [
                            {
                              "internalType": "string",
                              "name": "name",
                              "type": "string"
                            },
                            {
                              "internalType": "string",
                              "name": "description",
                              "type": "string"
                            }
                          ],
                          "internalType": "struct SharedStructs.OAuth_scopes",
                          "name": "scopes",
                          "type": "tuple"
                        }
                      ],
                      "internalType": "struct SharedStructs.OAuth_flow",
                      "name": "flows",
                      "type": "tuple"
                    },
                    {
                      "internalType": "string",
                      "name": "openIdConnectUrl",
                      "type": "string"
                    }
                  ],
                  "internalType": "struct SharedStructs.SecurityScheme",
                  "name": "mechanism",
                  "type": "tuple"
                }
              ],
              "internalType": "struct SharedStructs.Security",
              "name": "security",
              "type": "tuple"
            },
            {
              "internalType": "string",
              "name": "components",
              "type": "string"
            },
            {
              "components": [
                {
                  "internalType": "string",
                  "name": "name",
                  "type": "string"
                },
                {
                  "internalType": "string",
                  "name": "description",
                  "type": "string"
                },
                {
                  "components": [
                    {
                      "internalType": "string",
                      "name": "description",
                      "type": "string"
                    },
                    {
                      "internalType": "string",
                      "name": "url",
                      "type": "string"
                    }
                  ],
                  "internalType": "struct SharedStructs.ExternalDocs",
                  "name": "externalDocs",
                  "type": "tuple"
                }
              ],
              "internalType": "struct SharedStructs.Tags",
              "name": "tags",
              "type": "tuple"
            },
            {
              "components": [
                {
                  "internalType": "string",
                  "name": "description",
                  "type": "string"
                },
                {
                  "internalType": "string",
                  "name": "url",
                  "type": "string"
                }
              ],
              "internalType": "struct SharedStructs.ExternalDocs",
              "name": "externalDocs",
              "type": "tuple"
            },
            {
              "internalType": "string",
              "name": "x_category",
              "type": "string"
            },
            {
              "components": [
                {
                  "components": [
                    {
                      "internalType": "int256",
                      "name": "lat",
                      "type": "int256"
                    },
                    {
                      "internalType": "int256",
                      "name": "lng",
                      "type": "int256"
                    }
                  ],
                  "internalType": "struct SharedStructs.Coordinate",
                  "name": "north",
                  "type": "tuple"
                },
                {
                  "components": [
                    {
                      "internalType": "int256",
                      "name": "lat",
                      "type": "int256"
                    },
                    {
                      "internalType": "int256",
                      "name": "lng",
                      "type": "int256"
                    }
                  ],
                  "internalType": "struct SharedStructs.Coordinate",
                  "name": "south",
                  "type": "tuple"
                },
                {
                  "components": [
                    {
                      "internalType": "int256",
                      "name": "lat",
                      "type": "int256"
                    },
                    {
                      "internalType": "int256",
                      "name": "lng",
                      "type": "int256"
                    }
                  ],
                  "internalType": "struct SharedStructs.Coordinate",
                  "name": "east",
                  "type": "tuple"
                },
                {
                  "components": [
                    {
                      "internalType": "int256",
                      "name": "lat",
                      "type": "int256"
                    },
                    {
                      "internalType": "int256",
                      "name": "lng",
                      "type": "int256"
                    }
                  ],
                  "internalType": "struct SharedStructs.Coordinate",
                  "name": "west",
                  "type": "tuple"
                }
              ],
              "internalType": "struct SharedStructs.Coverage",
              "name": "x_coverage",
              "type": "tuple"
            },
            {
              "internalType": "address",
              "name": "x_api_producer",
              "type": "address"
            }
          ],
          "internalType": "struct Functionality.API[]",
          "name": "apiListings",
          "type": "tuple[]"
        }
      ],
      "name": "getApiOnCategory",
      "outputs": [
        {
          "components": [
            {
              "internalType": "uint256",
              "name": "id",
              "type": "uint256"
            },
            {
              "internalType": "string",
              "name": "openapi",
              "type": "string"
            },
            {
              "components": [
                {
                  "internalType": "string",
                  "name": "version",
                  "type": "string"
                },
                {
                  "internalType": "string",
                  "name": "title",
                  "type": "string"
                },
                {
                  "internalType": "string",
                  "name": "description",
                  "type": "string"
                },
                {
                  "internalType": "string",
                  "name": "termsOfService",
                  "type": "string"
                },
                {
                  "components": [
                    {
                      "internalType": "string",
                      "name": "name",
                      "type": "string"
                    },
                    {
                      "internalType": "string",
                      "name": "url",
                      "type": "string"
                    },
                    {
                      "internalType": "string",
                      "name": "email",
                      "type": "string"
                    }
                  ],
                  "internalType": "struct SharedStructs.Contact",
                  "name": "contact",
                  "type": "tuple"
                },
                {
                  "components": [
                    {
                      "internalType": "string",
                      "name": "name",
                      "type": "string"
                    },
                    {
                      "internalType": "string",
                      "name": "url",
                      "type": "string"
                    }
                  ],
                  "internalType": "struct SharedStructs.Licence",
                  "name": "license",
                  "type": "tuple"
                }
              ],
              "internalType": "struct SharedStructs.Info",
              "name": "info",
              "type": "tuple"
            },
            {
              "components": [
                {
                  "internalType": "string",
                  "name": "url",
                  "type": "string"
                },
                {
                  "internalType": "string",
                  "name": "description",
                  "type": "string"
                },
                {
                  "components": [
                    {
                      "internalType": "string",
                      "name": "name",
                      "type": "string"
                    },
                    {
                      "internalType": "string[]",
                      "name": "server_enum",
                      "type": "string[]"
                    },
                    {
                      "internalType": "string",
                      "name": "description",
                      "type": "string"
                    },
                    {
                      "internalType": "string",
                      "name": "server_default",
                      "type": "string"
                    }
                  ],
                  "internalType": "struct SharedStructs.ServerVariableObject",
                  "name": "variables",
                  "type": "tuple"
                }
              ],
              "internalType": "struct SharedStructs.Server",
              "name": "servers",
              "type": "tuple"
            },
            {
              "internalType": "string",
              "name": "paths",
              "type": "string"
            },
            {
              "components": [
                {
                  "internalType": "string",
                  "name": "name",
                  "type": "string"
                },
                {
                  "components": [
                    {
                      "internalType": "string",
                      "name": "security_type",
                      "type": "string"
                    },
                    {
                      "internalType": "string",
                      "name": "description",
                      "type": "string"
                    },
                    {
                      "internalType": "string",
                      "name": "name",
                      "type": "string"
                    },
                    {
                      "internalType": "string",
                      "name": "security_in",
                      "type": "string"
                    },
                    {
                      "internalType": "string",
                      "name": "scheme",
                      "type": "string"
                    },
                    {
                      "internalType": "string",
                      "name": "bearerFormat",
                      "type": "string"
                    },
                    {
                      "components": [
                        {
                          "internalType": "string",
                          "name": "flow_type",
                          "type": "string"
                        },
                        {
                          "internalType": "string",
                          "name": "authorizationUrl",
                          "type": "string"
                        },
                        {
                          "internalType": "string",
                          "name": "tokenUrl",
                          "type": "string"
                        },
                        {
                          "internalType": "string",
                          "name": "refreshUrl",
                          "type": "string"
                        },
                        {
                          "components": [
                            {
                              "internalType": "string",
                              "name": "name",
                              "type": "string"
                            },
                            {
                              "internalType": "string",
                              "name": "description",
                              "type": "string"
                            }
                          ],
                          "internalType": "struct SharedStructs.OAuth_scopes",
                          "name": "scopes",
                          "type": "tuple"
                        }
                      ],
                      "internalType": "struct SharedStructs.OAuth_flow",
                      "name": "flows",
                      "type": "tuple"
                    },
                    {
                      "internalType": "string",
                      "name": "openIdConnectUrl",
                      "type": "string"
                    }
                  ],
                  "internalType": "struct SharedStructs.SecurityScheme",
                  "name": "mechanism",
                  "type": "tuple"
                }
              ],
              "internalType": "struct SharedStructs.Security",
              "name": "security",
              "type": "tuple"
            },
            {
              "internalType": "string",
              "name": "components",
              "type": "string"
            },
            {
              "components": [
                {
                  "internalType": "string",
                  "name": "name",
                  "type": "string"
                },
                {
                  "internalType": "string",
                  "name": "description",
                  "type": "string"
                },
                {
                  "components": [
                    {
                      "internalType": "string",
                      "name": "description",
                      "type": "string"
                    },
                    {
                      "internalType": "string",
                      "name": "url",
                      "type": "string"
                    }
                  ],
                  "internalType": "struct SharedStructs.ExternalDocs",
                  "name": "externalDocs",
                  "type": "tuple"
                }
              ],
              "internalType": "struct SharedStructs.Tags",
              "name": "tags",
              "type": "tuple"
            },
            {
              "components": [
                {
                  "internalType": "string",
                  "name": "description",
                  "type": "string"
                },
                {
                  "internalType": "string",
                  "name": "url",
                  "type": "string"
                }
              ],
              "internalType": "struct SharedStructs.ExternalDocs",
              "name": "externalDocs",
              "type": "tuple"
            },
            {
              "internalType": "string",
              "name": "x_category",
              "type": "string"
            },
            {
              "components": [
                {
                  "components": [
                    {
                      "internalType": "int256",
                      "name": "lat",
                      "type": "int256"
                    },
                    {
                      "internalType": "int256",
                      "name": "lng",
                      "type": "int256"
                    }
                  ],
                  "internalType": "struct SharedStructs.Coordinate",
                  "name": "north",
                  "type": "tuple"
                },
                {
                  "components": [
                    {
                      "internalType": "int256",
                      "name": "lat",
                      "type": "int256"
                    },
                    {
                      "internalType": "int256",
                      "name": "lng",
                      "type": "int256"
                    }
                  ],
                  "internalType": "struct SharedStructs.Coordinate",
                  "name": "south",
                  "type": "tuple"
                },
                {
                  "components": [
                    {
                      "internalType": "int256",
                      "name": "lat",
                      "type": "int256"
                    },
                    {
                      "internalType": "int256",
                      "name": "lng",
                      "type": "int256"
                    }
                  ],
                  "internalType": "struct SharedStructs.Coordinate",
                  "name": "east",
                  "type": "tuple"
                },
                {
                  "components": [
                    {
                      "internalType": "int256",
                      "name": "lat",
                      "type": "int256"
                    },
                    {
                      "internalType": "int256",
                      "name": "lng",
                      "type": "int256"
                    }
                  ],
                  "internalType": "struct SharedStructs.Coordinate",
                  "name": "west",
                  "type": "tuple"
                }
              ],
              "internalType": "struct SharedStructs.Coverage",
              "name": "x_coverage",
              "type": "tuple"
            },
            {
              "internalType": "address",
              "name": "x_api_producer",
              "type": "address"
            }
          ],
          "internalType": "struct Functionality.API[]",
          "name": "",
          "type": "tuple[]"
        }
      ],
      "stateMutability": "pure",
      "type": "function",
      "constant": true
    },
    {
      "inputs": [
        {
          "components": [
            {
              "internalType": "int256",
              "name": "lat",
              "type": "int256"
            },
            {
              "internalType": "int256",
              "name": "lng",
              "type": "int256"
            }
          ],
          "internalType": "struct SharedStructs.Coordinate",
          "name": "point",
          "type": "tuple"
        },
        {
          "components": [
            {
              "internalType": "uint256",
              "name": "id",
              "type": "uint256"
            },
            {
              "internalType": "string",
              "name": "openapi",
              "type": "string"
            },
            {
              "components": [
                {
                  "internalType": "string",
                  "name": "version",
                  "type": "string"
                },
                {
                  "internalType": "string",
                  "name": "title",
                  "type": "string"
                },
                {
                  "internalType": "string",
                  "name": "description",
                  "type": "string"
                },
                {
                  "internalType": "string",
                  "name": "termsOfService",
                  "type": "string"
                },
                {
                  "components": [
                    {
                      "internalType": "string",
                      "name": "name",
                      "type": "string"
                    },
                    {
                      "internalType": "string",
                      "name": "url",
                      "type": "string"
                    },
                    {
                      "internalType": "string",
                      "name": "email",
                      "type": "string"
                    }
                  ],
                  "internalType": "struct SharedStructs.Contact",
                  "name": "contact",
                  "type": "tuple"
                },
                {
                  "components": [
                    {
                      "internalType": "string",
                      "name": "name",
                      "type": "string"
                    },
                    {
                      "internalType": "string",
                      "name": "url",
                      "type": "string"
                    }
                  ],
                  "internalType": "struct SharedStructs.Licence",
                  "name": "license",
                  "type": "tuple"
                }
              ],
              "internalType": "struct SharedStructs.Info",
              "name": "info",
              "type": "tuple"
            },
            {
              "components": [
                {
                  "internalType": "string",
                  "name": "url",
                  "type": "string"
                },
                {
                  "internalType": "string",
                  "name": "description",
                  "type": "string"
                },
                {
                  "components": [
                    {
                      "internalType": "string",
                      "name": "name",
                      "type": "string"
                    },
                    {
                      "internalType": "string[]",
                      "name": "server_enum",
                      "type": "string[]"
                    },
                    {
                      "internalType": "string",
                      "name": "description",
                      "type": "string"
                    },
                    {
                      "internalType": "string",
                      "name": "server_default",
                      "type": "string"
                    }
                  ],
                  "internalType": "struct SharedStructs.ServerVariableObject",
                  "name": "variables",
                  "type": "tuple"
                }
              ],
              "internalType": "struct SharedStructs.Server",
              "name": "servers",
              "type": "tuple"
            },
            {
              "internalType": "string",
              "name": "paths",
              "type": "string"
            },
            {
              "components": [
                {
                  "internalType": "string",
                  "name": "name",
                  "type": "string"
                },
                {
                  "components": [
                    {
                      "internalType": "string",
                      "name": "security_type",
                      "type": "string"
                    },
                    {
                      "internalType": "string",
                      "name": "description",
                      "type": "string"
                    },
                    {
                      "internalType": "string",
                      "name": "name",
                      "type": "string"
                    },
                    {
                      "internalType": "string",
                      "name": "security_in",
                      "type": "string"
                    },
                    {
                      "internalType": "string",
                      "name": "scheme",
                      "type": "string"
                    },
                    {
                      "internalType": "string",
                      "name": "bearerFormat",
                      "type": "string"
                    },
                    {
                      "components": [
                        {
                          "internalType": "string",
                          "name": "flow_type",
                          "type": "string"
                        },
                        {
                          "internalType": "string",
                          "name": "authorizationUrl",
                          "type": "string"
                        },
                        {
                          "internalType": "string",
                          "name": "tokenUrl",
                          "type": "string"
                        },
                        {
                          "internalType": "string",
                          "name": "refreshUrl",
                          "type": "string"
                        },
                        {
                          "components": [
                            {
                              "internalType": "string",
                              "name": "name",
                              "type": "string"
                            },
                            {
                              "internalType": "string",
                              "name": "description",
                              "type": "string"
                            }
                          ],
                          "internalType": "struct SharedStructs.OAuth_scopes",
                          "name": "scopes",
                          "type": "tuple"
                        }
                      ],
                      "internalType": "struct SharedStructs.OAuth_flow",
                      "name": "flows",
                      "type": "tuple"
                    },
                    {
                      "internalType": "string",
                      "name": "openIdConnectUrl",
                      "type": "string"
                    }
                  ],
                  "internalType": "struct SharedStructs.SecurityScheme",
                  "name": "mechanism",
                  "type": "tuple"
                }
              ],
              "internalType": "struct SharedStructs.Security",
              "name": "security",
              "type": "tuple"
            },
            {
              "internalType": "string",
              "name": "components",
              "type": "string"
            },
            {
              "components": [
                {
                  "internalType": "string",
                  "name": "name",
                  "type": "string"
                },
                {
                  "internalType": "string",
                  "name": "description",
                  "type": "string"
                },
                {
                  "components": [
                    {
                      "internalType": "string",
                      "name": "description",
                      "type": "string"
                    },
                    {
                      "internalType": "string",
                      "name": "url",
                      "type": "string"
                    }
                  ],
                  "internalType": "struct SharedStructs.ExternalDocs",
                  "name": "externalDocs",
                  "type": "tuple"
                }
              ],
              "internalType": "struct SharedStructs.Tags",
              "name": "tags",
              "type": "tuple"
            },
            {
              "components": [
                {
                  "internalType": "string",
                  "name": "description",
                  "type": "string"
                },
                {
                  "internalType": "string",
                  "name": "url",
                  "type": "string"
                }
              ],
              "internalType": "struct SharedStructs.ExternalDocs",
              "name": "externalDocs",
              "type": "tuple"
            },
            {
              "internalType": "string",
              "name": "x_category",
              "type": "string"
            },
            {
              "components": [
                {
                  "components": [
                    {
                      "internalType": "int256",
                      "name": "lat",
                      "type": "int256"
                    },
                    {
                      "internalType": "int256",
                      "name": "lng",
                      "type": "int256"
                    }
                  ],
                  "internalType": "struct SharedStructs.Coordinate",
                  "name": "north",
                  "type": "tuple"
                },
                {
                  "components": [
                    {
                      "internalType": "int256",
                      "name": "lat",
                      "type": "int256"
                    },
                    {
                      "internalType": "int256",
                      "name": "lng",
                      "type": "int256"
                    }
                  ],
                  "internalType": "struct SharedStructs.Coordinate",
                  "name": "south",
                  "type": "tuple"
                },
                {
                  "components": [
                    {
                      "internalType": "int256",
                      "name": "lat",
                      "type": "int256"
                    },
                    {
                      "internalType": "int256",
                      "name": "lng",
                      "type": "int256"
                    }
                  ],
                  "internalType": "struct SharedStructs.Coordinate",
                  "name": "east",
                  "type": "tuple"
                },
                {
                  "components": [
                    {
                      "internalType": "int256",
                      "name": "lat",
                      "type": "int256"
                    },
                    {
                      "internalType": "int256",
                      "name": "lng",
                      "type": "int256"
                    }
                  ],
                  "internalType": "struct SharedStructs.Coordinate",
                  "name": "west",
                  "type": "tuple"
                }
              ],
              "internalType": "struct SharedStructs.Coverage",
              "name": "x_coverage",
              "type": "tuple"
            },
            {
              "internalType": "address",
              "name": "x_api_producer",
              "type": "address"
            }
          ],
          "internalType": "struct Functionality.API[]",
          "name": "apiListings",
          "type": "tuple[]"
        }
      ],
      "name": "getApiOnCoverage",
      "outputs": [
        {
          "components": [
            {
              "internalType": "uint256",
              "name": "id",
              "type": "uint256"
            },
            {
              "internalType": "string",
              "name": "openapi",
              "type": "string"
            },
            {
              "components": [
                {
                  "internalType": "string",
                  "name": "version",
                  "type": "string"
                },
                {
                  "internalType": "string",
                  "name": "title",
                  "type": "string"
                },
                {
                  "internalType": "string",
                  "name": "description",
                  "type": "string"
                },
                {
                  "internalType": "string",
                  "name": "termsOfService",
                  "type": "string"
                },
                {
                  "components": [
                    {
                      "internalType": "string",
                      "name": "name",
                      "type": "string"
                    },
                    {
                      "internalType": "string",
                      "name": "url",
                      "type": "string"
                    },
                    {
                      "internalType": "string",
                      "name": "email",
                      "type": "string"
                    }
                  ],
                  "internalType": "struct SharedStructs.Contact",
                  "name": "contact",
                  "type": "tuple"
                },
                {
                  "components": [
                    {
                      "internalType": "string",
                      "name": "name",
                      "type": "string"
                    },
                    {
                      "internalType": "string",
                      "name": "url",
                      "type": "string"
                    }
                  ],
                  "internalType": "struct SharedStructs.Licence",
                  "name": "license",
                  "type": "tuple"
                }
              ],
              "internalType": "struct SharedStructs.Info",
              "name": "info",
              "type": "tuple"
            },
            {
              "components": [
                {
                  "internalType": "string",
                  "name": "url",
                  "type": "string"
                },
                {
                  "internalType": "string",
                  "name": "description",
                  "type": "string"
                },
                {
                  "components": [
                    {
                      "internalType": "string",
                      "name": "name",
                      "type": "string"
                    },
                    {
                      "internalType": "string[]",
                      "name": "server_enum",
                      "type": "string[]"
                    },
                    {
                      "internalType": "string",
                      "name": "description",
                      "type": "string"
                    },
                    {
                      "internalType": "string",
                      "name": "server_default",
                      "type": "string"
                    }
                  ],
                  "internalType": "struct SharedStructs.ServerVariableObject",
                  "name": "variables",
                  "type": "tuple"
                }
              ],
              "internalType": "struct SharedStructs.Server",
              "name": "servers",
              "type": "tuple"
            },
            {
              "internalType": "string",
              "name": "paths",
              "type": "string"
            },
            {
              "components": [
                {
                  "internalType": "string",
                  "name": "name",
                  "type": "string"
                },
                {
                  "components": [
                    {
                      "internalType": "string",
                      "name": "security_type",
                      "type": "string"
                    },
                    {
                      "internalType": "string",
                      "name": "description",
                      "type": "string"
                    },
                    {
                      "internalType": "string",
                      "name": "name",
                      "type": "string"
                    },
                    {
                      "internalType": "string",
                      "name": "security_in",
                      "type": "string"
                    },
                    {
                      "internalType": "string",
                      "name": "scheme",
                      "type": "string"
                    },
                    {
                      "internalType": "string",
                      "name": "bearerFormat",
                      "type": "string"
                    },
                    {
                      "components": [
                        {
                          "internalType": "string",
                          "name": "flow_type",
                          "type": "string"
                        },
                        {
                          "internalType": "string",
                          "name": "authorizationUrl",
                          "type": "string"
                        },
                        {
                          "internalType": "string",
                          "name": "tokenUrl",
                          "type": "string"
                        },
                        {
                          "internalType": "string",
                          "name": "refreshUrl",
                          "type": "string"
                        },
                        {
                          "components": [
                            {
                              "internalType": "string",
                              "name": "name",
                              "type": "string"
                            },
                            {
                              "internalType": "string",
                              "name": "description",
                              "type": "string"
                            }
                          ],
                          "internalType": "struct SharedStructs.OAuth_scopes",
                          "name": "scopes",
                          "type": "tuple"
                        }
                      ],
                      "internalType": "struct SharedStructs.OAuth_flow",
                      "name": "flows",
                      "type": "tuple"
                    },
                    {
                      "internalType": "string",
                      "name": "openIdConnectUrl",
                      "type": "string"
                    }
                  ],
                  "internalType": "struct SharedStructs.SecurityScheme",
                  "name": "mechanism",
                  "type": "tuple"
                }
              ],
              "internalType": "struct SharedStructs.Security",
              "name": "security",
              "type": "tuple"
            },
            {
              "internalType": "string",
              "name": "components",
              "type": "string"
            },
            {
              "components": [
                {
                  "internalType": "string",
                  "name": "name",
                  "type": "string"
                },
                {
                  "internalType": "string",
                  "name": "description",
                  "type": "string"
                },
                {
                  "components": [
                    {
                      "internalType": "string",
                      "name": "description",
                      "type": "string"
                    },
                    {
                      "internalType": "string",
                      "name": "url",
                      "type": "string"
                    }
                  ],
                  "internalType": "struct SharedStructs.ExternalDocs",
                  "name": "externalDocs",
                  "type": "tuple"
                }
              ],
              "internalType": "struct SharedStructs.Tags",
              "name": "tags",
              "type": "tuple"
            },
            {
              "components": [
                {
                  "internalType": "string",
                  "name": "description",
                  "type": "string"
                },
                {
                  "internalType": "string",
                  "name": "url",
                  "type": "string"
                }
              ],
              "internalType": "struct SharedStructs.ExternalDocs",
              "name": "externalDocs",
              "type": "tuple"
            },
            {
              "internalType": "string",
              "name": "x_category",
              "type": "string"
            },
            {
              "components": [
                {
                  "components": [
                    {
                      "internalType": "int256",
                      "name": "lat",
                      "type": "int256"
                    },
                    {
                      "internalType": "int256",
                      "name": "lng",
                      "type": "int256"
                    }
                  ],
                  "internalType": "struct SharedStructs.Coordinate",
                  "name": "north",
                  "type": "tuple"
                },
                {
                  "components": [
                    {
                      "internalType": "int256",
                      "name": "lat",
                      "type": "int256"
                    },
                    {
                      "internalType": "int256",
                      "name": "lng",
                      "type": "int256"
                    }
                  ],
                  "internalType": "struct SharedStructs.Coordinate",
                  "name": "south",
                  "type": "tuple"
                },
                {
                  "components": [
                    {
                      "internalType": "int256",
                      "name": "lat",
                      "type": "int256"
                    },
                    {
                      "internalType": "int256",
                      "name": "lng",
                      "type": "int256"
                    }
                  ],
                  "internalType": "struct SharedStructs.Coordinate",
                  "name": "east",
                  "type": "tuple"
                },
                {
                  "components": [
                    {
                      "internalType": "int256",
                      "name": "lat",
                      "type": "int256"
                    },
                    {
                      "internalType": "int256",
                      "name": "lng",
                      "type": "int256"
                    }
                  ],
                  "internalType": "struct SharedStructs.Coordinate",
                  "name": "west",
                  "type": "tuple"
                }
              ],
              "internalType": "struct SharedStructs.Coverage",
              "name": "x_coverage",
              "type": "tuple"
            },
            {
              "internalType": "address",
              "name": "x_api_producer",
              "type": "address"
            }
          ],
          "internalType": "struct Functionality.API[]",
          "name": "",
          "type": "tuple[]"
        }
      ],
      "stateMutability": "pure",
      "type": "function",
      "constant": true
    },
    {
      "inputs": [
        {
          "internalType": "string",
          "name": "_x_category",
          "type": "string"
        },
        {
          "components": [
            {
              "internalType": "int256",
              "name": "lat",
              "type": "int256"
            },
            {
              "internalType": "int256",
              "name": "lng",
              "type": "int256"
            }
          ],
          "internalType": "struct SharedStructs.Coordinate",
          "name": "point",
          "type": "tuple"
        },
        {
          "components": [
            {
              "internalType": "uint256",
              "name": "id",
              "type": "uint256"
            },
            {
              "internalType": "string",
              "name": "openapi",
              "type": "string"
            },
            {
              "components": [
                {
                  "internalType": "string",
                  "name": "version",
                  "type": "string"
                },
                {
                  "internalType": "string",
                  "name": "title",
                  "type": "string"
                },
                {
                  "internalType": "string",
                  "name": "description",
                  "type": "string"
                },
                {
                  "internalType": "string",
                  "name": "termsOfService",
                  "type": "string"
                },
                {
                  "components": [
                    {
                      "internalType": "string",
                      "name": "name",
                      "type": "string"
                    },
                    {
                      "internalType": "string",
                      "name": "url",
                      "type": "string"
                    },
                    {
                      "internalType": "string",
                      "name": "email",
                      "type": "string"
                    }
                  ],
                  "internalType": "struct SharedStructs.Contact",
                  "name": "contact",
                  "type": "tuple"
                },
                {
                  "components": [
                    {
                      "internalType": "string",
                      "name": "name",
                      "type": "string"
                    },
                    {
                      "internalType": "string",
                      "name": "url",
                      "type": "string"
                    }
                  ],
                  "internalType": "struct SharedStructs.Licence",
                  "name": "license",
                  "type": "tuple"
                }
              ],
              "internalType": "struct SharedStructs.Info",
              "name": "info",
              "type": "tuple"
            },
            {
              "components": [
                {
                  "internalType": "string",
                  "name": "url",
                  "type": "string"
                },
                {
                  "internalType": "string",
                  "name": "description",
                  "type": "string"
                },
                {
                  "components": [
                    {
                      "internalType": "string",
                      "name": "name",
                      "type": "string"
                    },
                    {
                      "internalType": "string[]",
                      "name": "server_enum",
                      "type": "string[]"
                    },
                    {
                      "internalType": "string",
                      "name": "description",
                      "type": "string"
                    },
                    {
                      "internalType": "string",
                      "name": "server_default",
                      "type": "string"
                    }
                  ],
                  "internalType": "struct SharedStructs.ServerVariableObject",
                  "name": "variables",
                  "type": "tuple"
                }
              ],
              "internalType": "struct SharedStructs.Server",
              "name": "servers",
              "type": "tuple"
            },
            {
              "internalType": "string",
              "name": "paths",
              "type": "string"
            },
            {
              "components": [
                {
                  "internalType": "string",
                  "name": "name",
                  "type": "string"
                },
                {
                  "components": [
                    {
                      "internalType": "string",
                      "name": "security_type",
                      "type": "string"
                    },
                    {
                      "internalType": "string",
                      "name": "description",
                      "type": "string"
                    },
                    {
                      "internalType": "string",
                      "name": "name",
                      "type": "string"
                    },
                    {
                      "internalType": "string",
                      "name": "security_in",
                      "type": "string"
                    },
                    {
                      "internalType": "string",
                      "name": "scheme",
                      "type": "string"
                    },
                    {
                      "internalType": "string",
                      "name": "bearerFormat",
                      "type": "string"
                    },
                    {
                      "components": [
                        {
                          "internalType": "string",
                          "name": "flow_type",
                          "type": "string"
                        },
                        {
                          "internalType": "string",
                          "name": "authorizationUrl",
                          "type": "string"
                        },
                        {
                          "internalType": "string",
                          "name": "tokenUrl",
                          "type": "string"
                        },
                        {
                          "internalType": "string",
                          "name": "refreshUrl",
                          "type": "string"
                        },
                        {
                          "components": [
                            {
                              "internalType": "string",
                              "name": "name",
                              "type": "string"
                            },
                            {
                              "internalType": "string",
                              "name": "description",
                              "type": "string"
                            }
                          ],
                          "internalType": "struct SharedStructs.OAuth_scopes",
                          "name": "scopes",
                          "type": "tuple"
                        }
                      ],
                      "internalType": "struct SharedStructs.OAuth_flow",
                      "name": "flows",
                      "type": "tuple"
                    },
                    {
                      "internalType": "string",
                      "name": "openIdConnectUrl",
                      "type": "string"
                    }
                  ],
                  "internalType": "struct SharedStructs.SecurityScheme",
                  "name": "mechanism",
                  "type": "tuple"
                }
              ],
              "internalType": "struct SharedStructs.Security",
              "name": "security",
              "type": "tuple"
            },
            {
              "internalType": "string",
              "name": "components",
              "type": "string"
            },
            {
              "components": [
                {
                  "internalType": "string",
                  "name": "name",
                  "type": "string"
                },
                {
                  "internalType": "string",
                  "name": "description",
                  "type": "string"
                },
                {
                  "components": [
                    {
                      "internalType": "string",
                      "name": "description",
                      "type": "string"
                    },
                    {
                      "internalType": "string",
                      "name": "url",
                      "type": "string"
                    }
                  ],
                  "internalType": "struct SharedStructs.ExternalDocs",
                  "name": "externalDocs",
                  "type": "tuple"
                }
              ],
              "internalType": "struct SharedStructs.Tags",
              "name": "tags",
              "type": "tuple"
            },
            {
              "components": [
                {
                  "internalType": "string",
                  "name": "description",
                  "type": "string"
                },
                {
                  "internalType": "string",
                  "name": "url",
                  "type": "string"
                }
              ],
              "internalType": "struct SharedStructs.ExternalDocs",
              "name": "externalDocs",
              "type": "tuple"
            },
            {
              "internalType": "string",
              "name": "x_category",
              "type": "string"
            },
            {
              "components": [
                {
                  "components": [
                    {
                      "internalType": "int256",
                      "name": "lat",
                      "type": "int256"
                    },
                    {
                      "internalType": "int256",
                      "name": "lng",
                      "type": "int256"
                    }
                  ],
                  "internalType": "struct SharedStructs.Coordinate",
                  "name": "north",
                  "type": "tuple"
                },
                {
                  "components": [
                    {
                      "internalType": "int256",
                      "name": "lat",
                      "type": "int256"
                    },
                    {
                      "internalType": "int256",
                      "name": "lng",
                      "type": "int256"
                    }
                  ],
                  "internalType": "struct SharedStructs.Coordinate",
                  "name": "south",
                  "type": "tuple"
                },
                {
                  "components": [
                    {
                      "internalType": "int256",
                      "name": "lat",
                      "type": "int256"
                    },
                    {
                      "internalType": "int256",
                      "name": "lng",
                      "type": "int256"
                    }
                  ],
                  "internalType": "struct SharedStructs.Coordinate",
                  "name": "east",
                  "type": "tuple"
                },
                {
                  "components": [
                    {
                      "internalType": "int256",
                      "name": "lat",
                      "type": "int256"
                    },
                    {
                      "internalType": "int256",
                      "name": "lng",
                      "type": "int256"
                    }
                  ],
                  "internalType": "struct SharedStructs.Coordinate",
                  "name": "west",
                  "type": "tuple"
                }
              ],
              "internalType": "struct SharedStructs.Coverage",
              "name": "x_coverage",
              "type": "tuple"
            },
            {
              "internalType": "address",
              "name": "x_api_producer",
              "type": "address"
            }
          ],
          "internalType": "struct Functionality.API[]",
          "name": "apiListings",
          "type": "tuple[]"
        }
      ],
      "name": "getApiOnCatAndCov",
      "outputs": [
        {
          "components": [
            {
              "internalType": "uint256",
              "name": "id",
              "type": "uint256"
            },
            {
              "internalType": "string",
              "name": "openapi",
              "type": "string"
            },
            {
              "components": [
                {
                  "internalType": "string",
                  "name": "version",
                  "type": "string"
                },
                {
                  "internalType": "string",
                  "name": "title",
                  "type": "string"
                },
                {
                  "internalType": "string",
                  "name": "description",
                  "type": "string"
                },
                {
                  "internalType": "string",
                  "name": "termsOfService",
                  "type": "string"
                },
                {
                  "components": [
                    {
                      "internalType": "string",
                      "name": "name",
                      "type": "string"
                    },
                    {
                      "internalType": "string",
                      "name": "url",
                      "type": "string"
                    },
                    {
                      "internalType": "string",
                      "name": "email",
                      "type": "string"
                    }
                  ],
                  "internalType": "struct SharedStructs.Contact",
                  "name": "contact",
                  "type": "tuple"
                },
                {
                  "components": [
                    {
                      "internalType": "string",
                      "name": "name",
                      "type": "string"
                    },
                    {
                      "internalType": "string",
                      "name": "url",
                      "type": "string"
                    }
                  ],
                  "internalType": "struct SharedStructs.Licence",
                  "name": "license",
                  "type": "tuple"
                }
              ],
              "internalType": "struct SharedStructs.Info",
              "name": "info",
              "type": "tuple"
            },
            {
              "components": [
                {
                  "internalType": "string",
                  "name": "url",
                  "type": "string"
                },
                {
                  "internalType": "string",
                  "name": "description",
                  "type": "string"
                },
                {
                  "components": [
                    {
                      "internalType": "string",
                      "name": "name",
                      "type": "string"
                    },
                    {
                      "internalType": "string[]",
                      "name": "server_enum",
                      "type": "string[]"
                    },
                    {
                      "internalType": "string",
                      "name": "description",
                      "type": "string"
                    },
                    {
                      "internalType": "string",
                      "name": "server_default",
                      "type": "string"
                    }
                  ],
                  "internalType": "struct SharedStructs.ServerVariableObject",
                  "name": "variables",
                  "type": "tuple"
                }
              ],
              "internalType": "struct SharedStructs.Server",
              "name": "servers",
              "type": "tuple"
            },
            {
              "internalType": "string",
              "name": "paths",
              "type": "string"
            },
            {
              "components": [
                {
                  "internalType": "string",
                  "name": "name",
                  "type": "string"
                },
                {
                  "components": [
                    {
                      "internalType": "string",
                      "name": "security_type",
                      "type": "string"
                    },
                    {
                      "internalType": "string",
                      "name": "description",
                      "type": "string"
                    },
                    {
                      "internalType": "string",
                      "name": "name",
                      "type": "string"
                    },
                    {
                      "internalType": "string",
                      "name": "security_in",
                      "type": "string"
                    },
                    {
                      "internalType": "string",
                      "name": "scheme",
                      "type": "string"
                    },
                    {
                      "internalType": "string",
                      "name": "bearerFormat",
                      "type": "string"
                    },
                    {
                      "components": [
                        {
                          "internalType": "string",
                          "name": "flow_type",
                          "type": "string"
                        },
                        {
                          "internalType": "string",
                          "name": "authorizationUrl",
                          "type": "string"
                        },
                        {
                          "internalType": "string",
                          "name": "tokenUrl",
                          "type": "string"
                        },
                        {
                          "internalType": "string",
                          "name": "refreshUrl",
                          "type": "string"
                        },
                        {
                          "components": [
                            {
                              "internalType": "string",
                              "name": "name",
                              "type": "string"
                            },
                            {
                              "internalType": "string",
                              "name": "description",
                              "type": "string"
                            }
                          ],
                          "internalType": "struct SharedStructs.OAuth_scopes",
                          "name": "scopes",
                          "type": "tuple"
                        }
                      ],
                      "internalType": "struct SharedStructs.OAuth_flow",
                      "name": "flows",
                      "type": "tuple"
                    },
                    {
                      "internalType": "string",
                      "name": "openIdConnectUrl",
                      "type": "string"
                    }
                  ],
                  "internalType": "struct SharedStructs.SecurityScheme",
                  "name": "mechanism",
                  "type": "tuple"
                }
              ],
              "internalType": "struct SharedStructs.Security",
              "name": "security",
              "type": "tuple"
            },
            {
              "internalType": "string",
              "name": "components",
              "type": "string"
            },
            {
              "components": [
                {
                  "internalType": "string",
                  "name": "name",
                  "type": "string"
                },
                {
                  "internalType": "string",
                  "name": "description",
                  "type": "string"
                },
                {
                  "components": [
                    {
                      "internalType": "string",
                      "name": "description",
                      "type": "string"
                    },
                    {
                      "internalType": "string",
                      "name": "url",
                      "type": "string"
                    }
                  ],
                  "internalType": "struct SharedStructs.ExternalDocs",
                  "name": "externalDocs",
                  "type": "tuple"
                }
              ],
              "internalType": "struct SharedStructs.Tags",
              "name": "tags",
              "type": "tuple"
            },
            {
              "components": [
                {
                  "internalType": "string",
                  "name": "description",
                  "type": "string"
                },
                {
                  "internalType": "string",
                  "name": "url",
                  "type": "string"
                }
              ],
              "internalType": "struct SharedStructs.ExternalDocs",
              "name": "externalDocs",
              "type": "tuple"
            },
            {
              "internalType": "string",
              "name": "x_category",
              "type": "string"
            },
            {
              "components": [
                {
                  "components": [
                    {
                      "internalType": "int256",
                      "name": "lat",
                      "type": "int256"
                    },
                    {
                      "internalType": "int256",
                      "name": "lng",
                      "type": "int256"
                    }
                  ],
                  "internalType": "struct SharedStructs.Coordinate",
                  "name": "north",
                  "type": "tuple"
                },
                {
                  "components": [
                    {
                      "internalType": "int256",
                      "name": "lat",
                      "type": "int256"
                    },
                    {
                      "internalType": "int256",
                      "name": "lng",
                      "type": "int256"
                    }
                  ],
                  "internalType": "struct SharedStructs.Coordinate",
                  "name": "south",
                  "type": "tuple"
                },
                {
                  "components": [
                    {
                      "internalType": "int256",
                      "name": "lat",
                      "type": "int256"
                    },
                    {
                      "internalType": "int256",
                      "name": "lng",
                      "type": "int256"
                    }
                  ],
                  "internalType": "struct SharedStructs.Coordinate",
                  "name": "east",
                  "type": "tuple"
                },
                {
                  "components": [
                    {
                      "internalType": "int256",
                      "name": "lat",
                      "type": "int256"
                    },
                    {
                      "internalType": "int256",
                      "name": "lng",
                      "type": "int256"
                    }
                  ],
                  "internalType": "struct SharedStructs.Coordinate",
                  "name": "west",
                  "type": "tuple"
                }
              ],
              "internalType": "struct SharedStructs.Coverage",
              "name": "x_coverage",
              "type": "tuple"
            },
            {
              "internalType": "address",
              "name": "x_api_producer",
              "type": "address"
            }
          ],
          "internalType": "struct Functionality.API[]",
          "name": "",
          "type": "tuple[]"
        }
      ],
      "stateMutability": "pure",
      "type": "function",
      "constant": true
    }
  ],
  "bytecode": "0x61257b610053600b82828239805160001a607314610046577f4e487b7100000000000000000000000000000000000000000000000000000000600052600060045260246000fd5b30600052607381538281f3fe73000000000000000000000000000000000000000030146080604052600436106100565760003560e01c806306fe6ddc1461005b5780634690b82c1461008b5780635ce14a40146100bb578063e4214177146100f8575b600080fd5b610075600480360381019061007091906119b9565b610128565b60405161008291906122e3565b60405180910390f35b6100a560048036038101906100a09190612305565b610277565b6040516100b291906122e3565b60405180910390f35b8180156100c757600080fd5b506100e260048036038101906100dd9190612305565b6103d6565b6040516100ef91906122e3565b60405180910390f35b610112600480360381019061010d9190612361565b6105ac565b60405161011f91906122e3565b60405180910390f35b6060600061013684846105ca565b905060008167ffffffffffffffff811115610154576101536109d2565b5b60405190808252806020026020018201604052801561018d57816020015b61017a6106e7565b8152602001906001900390816101725790505b5090506000805b855181101561026a57866040516020016101ae9190612428565b604051602081830303815290604052805190602001208682815181106101d7576101d661243f565b5b602002602001015161012001516040516020016101f49190612428565b6040516020818303038152906040528051906020012003610257578581815181106102225761022161243f565b5b602002602001015183838151811061023d5761023c61243f565b5b602002602001018190525081806102539061249d565b9250505b80806102629061249d565b915050610194565b5081935050505092915050565b6060600080600090505b83518110156102da576102b3858583815181106102a1576102a061243f565b5b60200260200101516101400151610678565b156102c75781806102c39061249d565b9250505b80806102d29061249d565b915050610281565b5060008167ffffffffffffffff8111156102f7576102f66109d2565b5b60405190808252806020026020018201604052801561033057816020015b61031d6106e7565b8152602001906001900390816103155790505b5090506000805b85518110156103c957610369878783815181106103575761035661243f565b5b60200260200101516101400151610678565b156103b6578581815181106103815761038061243f565b5b602002602001015183838151811061039c5761039b61243f565b5b602002602001018190525081806103b29061249d565b9250505b80806103c19061249d565b915050610337565b5081935050505092915050565b6060600080600090505b83518110156104395761041285858381518110610400576103ff61243f565b5b60200260200101516101400151610678565b156104265781806104229061249d565b9250505b80806104319061249d565b9150506103e0565b5060008167ffffffffffffffff811115610456576104556109d2565b5b60405190808252806020026020018201604052801561048f57816020015b61047c6106e7565b8152602001906001900390816104745790505b50905060008047905060005b865181101561059e576104cd888883815181106104bb576104ba61243f565b5b60200260200101516101400151610678565b1561058b578681815181106104e5576104e461243f565b5b6020026020010151848481518110610500576104ff61243f565b5b602002602001018190525083838151811061051e5761051d61243f565b5b6020026020010151610160015173ffffffffffffffffffffffffffffffffffffffff166108fc86846105509190612514565b9081150290604051600060405180830381858888f1935050505015801561057b573d6000803e3d6000fd5b5082806105879061249d565b9350505b80806105969061249d565b91505061049b565b508294505050505092915050565b60606105c1836105bc8685610128565b610277565b90509392505050565b60008060005b835181101561066d57846040516020016105ea9190612428565b604051602081830303815290604052805190602001208482815181106106135761061261243f565b5b602002602001015161012001516040516020016106309190612428565b604051602081830303815290604052805190602001200361065a5781806106569061249d565b9250505b80806106659061249d565b9150506105d0565b508091505092915050565b600082600001518260200151600001511280156106a057508160000151600001518360000151125b80156106ce575082602001518260600151602001511280156106cd57508160400151602001518360200151125b5b156106dc57600190506106e1565b600090505b92915050565b6040518061018001604052806000815260200160608152602001610709610782565b81526020016107166107c4565b81526020016060815260200161072a6107eb565b81526020016060815260200161073e61080b565b815260200161074b610832565b81526020016060815260200161075f61084c565b8152602001600073ffffffffffffffffffffffffffffffffffffffff1681525090565b6040518060c00160405280606081526020016060815260200160608152602001606081526020016107b161088c565b81526020016107be6108ad565b81525090565b604051806060016040528060608152602001606081526020016107e56108c7565b81525090565b6040518060400160405280606081526020016108056108ef565b81525090565b6040518060600160405280606081526020016060815260200161082c610832565b81525090565b604051806040016040528060608152602001606081525090565b604051806080016040528061085f61093a565b815260200161086c61093a565b815260200161087961093a565b815260200161088661093a565b81525090565b60405180606001604052806060815260200160608152602001606081525090565b604051806040016040528060608152602001606081525090565b6040518060800160405280606081526020016060815260200160608152602001606081525090565b60405180610100016040528060608152602001606081526020016060815260200160608152602001606081526020016060815260200161092d610954565b8152602001606081525090565b604051806040016040528060008152602001600081525090565b6040518060a0016040528060608152602001606081526020016060815260200160608152602001610983610989565b81525090565b604051806040016040528060608152602001606081525090565b6000604051905090565b600080fd5b600080fd5b600080fd5b600080fd5b6000601f19601f8301169050919050565b7f4e487b7100000000000000000000000000000000000000000000000000000000600052604160045260246000fd5b610a0a826109c1565b810181811067ffffffffffffffff82111715610a2957610a286109d2565b5b80604052505050565b6000610a3c6109a3565b9050610a488282610a01565b919050565b600067ffffffffffffffff821115610a6857610a676109d2565b5b610a71826109c1565b9050602081019050919050565b82818337600083830152505050565b6000610aa0610a9b84610a4d565b610a32565b905082815260208101848484011115610abc57610abb6109bc565b5b610ac7848285610a7e565b509392505050565b600082601f830112610ae457610ae36109b7565b5b8135610af4848260208601610a8d565b91505092915050565b600067ffffffffffffffff821115610b1857610b176109d2565b5b602082029050602081019050919050565b600080fd5b600080fd5b600080fd5b6000819050919050565b610b4b81610b38565b8114610b5657600080fd5b50565b600081359050610b6881610b42565b92915050565b600060608284031215610b8457610b83610b2e565b5b610b8e6060610a32565b9050600082013567ffffffffffffffff811115610bae57610bad610b33565b5b610bba84828501610acf565b600083015250602082013567ffffffffffffffff811115610bde57610bdd610b33565b5b610bea84828501610acf565b602083015250604082013567ffffffffffffffff811115610c0e57610c0d610b33565b5b610c1a84828501610acf565b60408301525092915050565b600060408284031215610c3c57610c3b610b2e565b5b610c466040610a32565b9050600082013567ffffffffffffffff811115610c6657610c65610b33565b5b610c7284828501610acf565b600083015250602082013567ffffffffffffffff811115610c9657610c95610b33565b5b610ca284828501610acf565b60208301525092915050565b600060c08284031215610cc457610cc3610b2e565b5b610cce60c0610a32565b9050600082013567ffffffffffffffff811115610cee57610ced610b33565b5b610cfa84828501610acf565b600083015250602082013567ffffffffffffffff811115610d1e57610d1d610b33565b5b610d2a84828501610acf565b602083015250604082013567ffffffffffffffff811115610d4e57610d4d610b33565b5b610d5a84828501610acf565b604083015250606082013567ffffffffffffffff811115610d7e57610d7d610b33565b5b610d8a84828501610acf565b606083015250608082013567ffffffffffffffff811115610dae57610dad610b33565b5b610dba84828501610b6e565b60808301525060a082013567ffffffffffffffff811115610dde57610ddd610b33565b5b610dea84828501610c26565b60a08301525092915050565b600067ffffffffffffffff821115610e1157610e106109d2565b5b602082029050602081019050919050565b6000610e35610e3084610df6565b610a32565b90508083825260208201905060208402830185811115610e5857610e57610b29565b5b835b81811015610e9f57803567ffffffffffffffff811115610e7d57610e7c6109b7565b5b808601610e8a8982610acf565b85526020850194505050602081019050610e5a565b5050509392505050565b600082601f830112610ebe57610ebd6109b7565b5b8135610ece848260208601610e22565b91505092915050565b600060808284031215610eed57610eec610b2e565b5b610ef76080610a32565b9050600082013567ffffffffffffffff811115610f1757610f16610b33565b5b610f2384828501610acf565b600083015250602082013567ffffffffffffffff811115610f4757610f46610b33565b5b610f5384828501610ea9565b602083015250604082013567ffffffffffffffff811115610f7757610f76610b33565b5b610f8384828501610acf565b604083015250606082013567ffffffffffffffff811115610fa757610fa6610b33565b5b610fb384828501610acf565b60608301525092915050565b600060608284031215610fd557610fd4610b2e565b5b610fdf6060610a32565b9050600082013567ffffffffffffffff811115610fff57610ffe610b33565b5b61100b84828501610acf565b600083015250602082013567ffffffffffffffff81111561102f5761102e610b33565b5b61103b84828501610acf565b602083015250604082013567ffffffffffffffff81111561105f5761105e610b33565b5b61106b84828501610ed7565b60408301525092915050565b60006040828403121561108d5761108c610b2e565b5b6110976040610a32565b9050600082013567ffffffffffffffff8111156110b7576110b6610b33565b5b6110c384828501610acf565b600083015250602082013567ffffffffffffffff8111156110e7576110e6610b33565b5b6110f384828501610acf565b60208301525092915050565b600060a0828403121561111557611114610b2e565b5b61111f60a0610a32565b9050600082013567ffffffffffffffff81111561113f5761113e610b33565b5b61114b84828501610acf565b600083015250602082013567ffffffffffffffff81111561116f5761116e610b33565b5b61117b84828501610acf565b602083015250604082013567ffffffffffffffff81111561119f5761119e610b33565b5b6111ab84828501610acf565b604083015250606082013567ffffffffffffffff8111156111cf576111ce610b33565b5b6111db84828501610acf565b606083015250608082013567ffffffffffffffff8111156111ff576111fe610b33565b5b61120b84828501611077565b60808301525092915050565b6000610100828403121561122e5761122d610b2e565b5b611239610100610a32565b9050600082013567ffffffffffffffff81111561125957611258610b33565b5b61126584828501610acf565b600083015250602082013567ffffffffffffffff81111561128957611288610b33565b5b61129584828501610acf565b602083015250604082013567ffffffffffffffff8111156112b9576112b8610b33565b5b6112c584828501610acf565b604083015250606082013567ffffffffffffffff8111156112e9576112e8610b33565b5b6112f584828501610acf565b606083015250608082013567ffffffffffffffff81111561131957611318610b33565b5b61132584828501610acf565b60808301525060a082013567ffffffffffffffff81111561134957611348610b33565b5b61135584828501610acf565b60a08301525060c082013567ffffffffffffffff81111561137957611378610b33565b5b611385848285016110ff565b60c08301525060e082013567ffffffffffffffff8111156113a9576113a8610b33565b5b6113b584828501610acf565b60e08301525092915050565b6000604082840312156113d7576113d6610b2e565b5b6113e16040610a32565b9050600082013567ffffffffffffffff81111561140157611400610b33565b5b61140d84828501610acf565b600083015250602082013567ffffffffffffffff81111561143157611430610b33565b5b61143d84828501611217565b60208301525092915050565b60006040828403121561145f5761145e610b2e565b5b6114696040610a32565b9050600082013567ffffffffffffffff81111561148957611488610b33565b5b61149584828501610acf565b600083015250602082013567ffffffffffffffff8111156114b9576114b8610b33565b5b6114c584828501610acf565b60208301525092915050565b6000606082840312156114e7576114e6610b2e565b5b6114f16060610a32565b9050600082013567ffffffffffffffff81111561151157611510610b33565b5b61151d84828501610acf565b600083015250602082013567ffffffffffffffff81111561154157611540610b33565b5b61154d84828501610acf565b602083015250604082013567ffffffffffffffff81111561157157611570610b33565b5b61157d84828501611449565b60408301525092915050565b6000819050919050565b61159c81611589565b81146115a757600080fd5b50565b6000813590506115b981611593565b92915050565b6000604082840312156115d5576115d4610b2e565b5b6115df6040610a32565b905060006115ef848285016115aa565b6000830152506020611603848285016115aa565b60208301525092915050565b6000610100828403121561162657611625610b2e565b5b6116306080610a32565b90506000611640848285016115bf565b6000830152506040611654848285016115bf565b6020830152506080611668848285016115bf565b60408301525060c061167c848285016115bf565b60608301525092915050565b600073ffffffffffffffffffffffffffffffffffffffff82169050919050565b60006116b382611688565b9050919050565b6116c3816116a8565b81146116ce57600080fd5b50565b6000813590506116e0816116ba565b92915050565b600061026082840312156116fd576116fc610b2e565b5b611708610180610a32565b9050600061171884828501610b59565b600083015250602082013567ffffffffffffffff81111561173c5761173b610b33565b5b61174884828501610acf565b602083015250604082013567ffffffffffffffff81111561176c5761176b610b33565b5b61177884828501610cae565b604083015250606082013567ffffffffffffffff81111561179c5761179b610b33565b5b6117a884828501610fbf565b606083015250608082013567ffffffffffffffff8111156117cc576117cb610b33565b5b6117d884828501610acf565b60808301525060a082013567ffffffffffffffff8111156117fc576117fb610b33565b5b611808848285016113c1565b60a08301525060c082013567ffffffffffffffff81111561182c5761182b610b33565b5b61183884828501610acf565b60c08301525060e082013567ffffffffffffffff81111561185c5761185b610b33565b5b611868848285016114d1565b60e08301525061010082013567ffffffffffffffff81111561188d5761188c610b33565b5b61189984828501611449565b6101008301525061012082013567ffffffffffffffff8111156118bf576118be610b33565b5b6118cb84828501610acf565b610120830152506101406118e18482850161160f565b610140830152506102406118f7848285016116d1565b6101608301525092915050565b600061191761191284610afd565b610a32565b9050808382526020820190506020840283018581111561193a57611939610b29565b5b835b8181101561198157803567ffffffffffffffff81111561195f5761195e6109b7565b5b80860161196c89826116e6565b8552602085019450505060208101905061193c565b5050509392505050565b600082601f8301126119a05761199f6109b7565b5b81356119b0848260208601611904565b91505092915050565b600080604083850312156119d0576119cf6109ad565b5b600083013567ffffffffffffffff8111156119ee576119ed6109b2565b5b6119fa85828601610acf565b925050602083013567ffffffffffffffff811115611a1b57611a1a6109b2565b5b611a278582860161198b565b9150509250929050565b600081519050919050565b600082825260208201905092915050565b6000819050602082019050919050565b611a6681610b38565b82525050565b600081519050919050565b600082825260208201905092915050565b60005b83811015611aa6578082015181840152602081019050611a8b565b60008484015250505050565b6000611abd82611a6c565b611ac78185611a77565b9350611ad7818560208601611a88565b611ae0816109c1565b840191505092915050565b60006060830160008301518482036000860152611b088282611ab2565b91505060208301518482036020860152611b228282611ab2565b91505060408301518482036040860152611b3c8282611ab2565b9150508091505092915050565b60006040830160008301518482036000860152611b668282611ab2565b91505060208301518482036020860152611b808282611ab2565b9150508091505092915050565b600060c0830160008301518482036000860152611baa8282611ab2565b91505060208301518482036020860152611bc48282611ab2565b91505060408301518482036040860152611bde8282611ab2565b91505060608301518482036060860152611bf88282611ab2565b91505060808301518482036080860152611c128282611aeb565b91505060a083015184820360a0860152611c2c8282611b49565b9150508091505092915050565b600081519050919050565b600082825260208201905092915050565b6000819050602082019050919050565b6000611c718383611ab2565b905092915050565b6000602082019050919050565b6000611c9182611c39565b611c9b8185611c44565b935083602082028501611cad85611c55565b8060005b85811015611ce95784840389528151611cca8582611c65565b9450611cd583611c79565b925060208a01995050600181019050611cb1565b50829750879550505050505092915050565b60006080830160008301518482036000860152611d188282611ab2565b91505060208301518482036020860152611d328282611c86565b91505060408301518482036040860152611d4c8282611ab2565b91505060608301518482036060860152611d668282611ab2565b9150508091505092915050565b60006060830160008301518482036000860152611d908282611ab2565b91505060208301518482036020860152611daa8282611ab2565b91505060408301518482036040860152611dc48282611cfb565b9150508091505092915050565b60006040830160008301518482036000860152611dee8282611ab2565b91505060208301518482036020860152611e088282611ab2565b9150508091505092915050565b600060a0830160008301518482036000860152611e328282611ab2565b91505060208301518482036020860152611e4c8282611ab2565b91505060408301518482036040860152611e668282611ab2565b91505060608301518482036060860152611e808282611ab2565b91505060808301518482036080860152611e9a8282611dd1565b9150508091505092915050565b6000610100830160008301518482036000860152611ec58282611ab2565b91505060208301518482036020860152611edf8282611ab2565b91505060408301518482036040860152611ef98282611ab2565b91505060608301518482036060860152611f138282611ab2565b91505060808301518482036080860152611f2d8282611ab2565b91505060a083015184820360a0860152611f478282611ab2565b91505060c083015184820360c0860152611f618282611e15565b91505060e083015184820360e0860152611f7b8282611ab2565b9150508091505092915050565b60006040830160008301518482036000860152611fa58282611ab2565b91505060208301518482036020860152611fbf8282611ea7565b9150508091505092915050565b60006040830160008301518482036000860152611fe98282611ab2565b915050602083015184820360208601526120038282611ab2565b9150508091505092915050565b6000606083016000830151848203600086015261202d8282611ab2565b915050602083015184820360208601526120478282611ab2565b915050604083015184820360408601526120618282611fcc565b9150508091505092915050565b61207781611589565b82525050565b604082016000820151612093600085018261206e565b5060208201516120a6602085018261206e565b50505050565b610100820160008201516120c3600085018261207d565b5060208201516120d6604085018261207d565b5060408201516120e9608085018261207d565b5060608201516120fc60c085018261207d565b50505050565b61210b816116a8565b82525050565b60006102608301600083015161212a6000860182611a5d565b50602083015184820360208601526121428282611ab2565b9150506040830151848203604086015261215c8282611b8d565b915050606083015184820360608601526121768282611d73565b915050608083015184820360808601526121908282611ab2565b91505060a083015184820360a08601526121aa8282611f88565b91505060c083015184820360c08601526121c48282611ab2565b91505060e083015184820360e08601526121de8282612010565b9150506101008301518482036101008601526121fa8282611fcc565b9150506101208301518482036101208601526122168282611ab2565b91505061014083015161222d6101408601826120ac565b50610160830151612242610240860182612102565b508091505092915050565b60006122598383612111565b905092915050565b6000602082019050919050565b600061227982611a31565b6122838185611a3c565b93508360208202850161229585611a4d565b8060005b858110156122d157848403895281516122b2858261224d565b94506122bd83612261565b925060208a01995050600181019050612299565b50829750879550505050505092915050565b600060208201905081810360008301526122fd818461226e565b905092915050565b6000806060838503121561231c5761231b6109ad565b5b600061232a858286016115bf565b925050604083013567ffffffffffffffff81111561234b5761234a6109b2565b5b6123578582860161198b565b9150509250929050565b60008060006080848603121561237a576123796109ad565b5b600084013567ffffffffffffffff811115612398576123976109b2565b5b6123a486828701610acf565b93505060206123b5868287016115bf565b925050606084013567ffffffffffffffff8111156123d6576123d56109b2565b5b6123e28682870161198b565b9150509250925092565b600081905092915050565b600061240282611a6c565b61240c81856123ec565b935061241c818560208601611a88565b80840191505092915050565b600061243482846123f7565b915081905092915050565b7f4e487b7100000000000000000000000000000000000000000000000000000000600052603260045260246000fd5b7f4e487b7100000000000000000000000000000000000000000000000000000000600052601160045260246000fd5b60006124a882610b38565b91507fffffffffffffffffffffffffffffffffffffffffffffffffffffffffffffffff82036124da576124d961246e565b5b600182019050919050565b7f4e487b7100000000000000000000000000000000000000000000000000000000600052601260045260246000fd5b600061251f82610b38565b915061252a83610b38565b92508261253a576125396124e5565b5b82820490509291505056fea2646970667358221220f5592818e394b41cb3629c51171f1ba322830331d0e4c9b6759a373a027cb31164736f6c63430008110033",
  "immutableReferences": {},
  "source": "// SPDX-License-Identifier: UNLICENSED\r\npragma solidity ^0.8.17;\r\n\r\nimport \"./SharedStructs.sol\";\r\n\r\n/// @title The provided functionality and API data structure for the API Directory in the form of a library\r\n/// @author Thomas A. Pappas\r\n/// @notice Provides the functions and API data structure to make a API Directory smart contract\r\n/// @dev This library is developed for modularity purposes and because at the time of developing (Feb 2023), in Solidity, the maximum size of a contract is restricted to 24 KB\r\nlibrary Functionality {\r\n\r\n    /// @notice Find APIs based on category\r\n    /// @dev Sets the length of the return array and then populates that array with APIs\r\n    /// @param apiListings The API[] array based on which the search will be done\r\n    /// @return returnApiListing Subset of apiListings\r\n    function getApiOnCategory(string memory _x_category, API[] memory apiListings) public pure returns (API[] memory) {\r\n        uint len = getArrayLength(_x_category, apiListings);\r\n        API[] memory returnApiListing = new API[](len);\r\n        uint k = 0;\r\n        for (uint i = 0; i < apiListings.length; i++) {        \r\n            if (keccak256(abi.encodePacked(apiListings[i].x_category)) == keccak256(abi.encodePacked(_x_category))){      \r\n                returnApiListing[k] = apiListings[i];\r\n                k++;\r\n            }       \r\n        }\r\n        return returnApiListing;\r\n    }\r\n\r\n    /// @notice Computes the length of the result array, because memory array cannot have dynamic length\r\n    /// @dev You can compare strings by hashing the packed encoding values of the string\r\n    function getArrayLength(string memory keyword, API[] memory apiListings) internal pure returns (uint) {\r\n        uint count;\r\n        for (uint i = 0; i < apiListings.length; i++) {        \r\n            if (keccak256(abi.encodePacked(apiListings[i].x_category)) == keccak256(abi.encodePacked(keyword))){      \r\n                count++;\r\n            }       \r\n        }\r\n        return count;\r\n    }\r\n\r\n    /// @notice Finds if single point (coordinate) is inside rectangle area specified by most north, south, east and west points \r\n    /// @dev For north-south only the latitude should be compared. For east-west only the longitude should be compared.\r\n    function checkPointInside(SharedStructs.Coordinate memory point, SharedStructs.Coverage memory rect) internal pure returns (bool) {\r\n        if(((rect.south.lat < point.lat) && (point.lat < rect.north.lat)) && ((rect.west.lng < point.lng) && (point.lng < rect.east.lng))){\r\n            return true;\r\n        }\r\n        return false;\r\n    }\r\n\r\n    /// @notice Find APIs based on coverage\r\n    /// @dev Sets the length of the return array and then populates that array with APIs\r\n    /// @param point The coordinate provided to which we want to find APIs. Has lat and lng fields. \r\n    function getApiOnCoverage(SharedStructs.Coordinate memory point, API[] memory apiListings) public pure returns (API[] memory) {\r\n        uint count;\r\n        for (uint i = 0; i < apiListings.length; i++) {        \r\n            if (checkPointInside(point, apiListings[i].x_coverage)){      \r\n                count++;\r\n            }       \r\n        }\r\n        \r\n        API[] memory returnApiListing = new API[](count);\r\n        uint k = 0;\r\n        for (uint i = 0; i < apiListings.length; i++) {        \r\n            if (checkPointInside(point, apiListings[i].x_coverage)){      \r\n                returnApiListing[k] = apiListings[i];\r\n                k++;\r\n            }       \r\n        }\r\n        return returnApiListing;\r\n    } \r\n\r\n    /// @notice Combines searching upon catecory and coverage\r\n    /// @dev Return one array with getApiOnCategory() and then a subset of that array with getApiOnCoverage()\r\n    function getApiOnCatAndCov(string memory _x_category, SharedStructs.Coordinate memory point, API[] memory apiListings) public pure returns (API[] memory){\r\n        return getApiOnCoverage(point, getApiOnCategory(_x_category, apiListings));\r\n    }\r\n\r\n    /// @notice Finds the APIs based on coverage and pays the producers equally\r\n    /// @dev Balance is the caller Contract's balance. It should always be equal to the payment the consumers gave on the function call.- \r\n    /// @dev -It should not accumulate ether. Then, the Contract pays equally the API consumers' addresses the amount it recieved on call.\r\n    function getApiOnCoveragePayable(SharedStructs.Coordinate memory point, API[] memory apiListings) public returns (API[] memory) {\r\n        uint count;\r\n        for (uint i = 0; i < apiListings.length; i++) {        \r\n            if (checkPointInside(point, apiListings[i].x_coverage)){      \r\n                count++;\r\n            }       \r\n        }\r\n        \r\n        API[] memory returnApiListing = new API[](count);\r\n        uint k = 0;\r\n        uint balance = address(this).balance; \r\n        for (uint i = 0; i < apiListings.length; i++) {        \r\n            if (checkPointInside(point, apiListings[i].x_coverage)){      \r\n                returnApiListing[k] = apiListings[i];\r\n                payable(returnApiListing[k].x_api_producer).transfer(balance/count);\r\n                k++;\r\n            }       \r\n        }\r\n        return returnApiListing;\r\n    } \r\n\r\n    /// @notice The API data structure based and extended on Swagger specification. A contract can freely use a subset or extend it\r\n    struct API {\r\n        uint id;\r\n        string openapi;\r\n        SharedStructs.Info info;\r\n        SharedStructs.Server servers;\r\n        string paths;\r\n        SharedStructs.Security security;\r\n        string components;\r\n        SharedStructs.Tags tags;\r\n        SharedStructs.ExternalDocs externalDocs;\r\n        string x_category;\r\n        SharedStructs.Coverage x_coverage;\r\n        address x_api_producer;\r\n    }\r\n}",
  "sourcePath": "C:\\Users\\Tomas\\Documents\\ETH-dev\\ApiDirectory\\contracts\\Functionality.sol",
  "compiler": {
    "name": "solc",
    "version": "0.8.17+commit.8df45f5f.Emscripten.clang"
  },
  "schemaVersion": "3.4.11",
  "updatedAt": "2023-02-12T20:53:26.550Z",
  "networkType": "ethereum",
  "devdoc": {
    "author": "Thomas A. Pappas",
    "details": "This library is developed for modularity purposes and because at the time of developing (Feb 2023), in Solidity, the maximum size of a contract is restricted to 24 KB",
    "kind": "dev",
    "methods": {
      "getApiOnCatAndCov(string,SharedStructs.Coordinate,Functionality.API[])": {
        "details": "Return one array with getApiOnCategory() and then a subset of that array with getApiOnCoverage()"
      },
      "getApiOnCategory(string,Functionality.API[])": {
        "details": "Sets the length of the return array and then populates that array with APIs",
        "params": {
          "apiListings": "The API[] array based on which the search will be done"
        },
        "returns": {
          "_0": "returnApiListing Subset of apiListings"
        }
      },
      "getApiOnCoverage(SharedStructs.Coordinate,Functionality.API[])": {
        "details": "Sets the length of the return array and then populates that array with APIs",
        "params": {
          "point": "The coordinate provided to which we want to find APIs. Has lat and lng fields. "
        }
      },
      "getApiOnCoveragePayable(SharedStructs.Coordinate,Functionality.API[])": {
        "details": "Balance is the caller Contract's balance. It should always be equal to the payment the consumers gave on the function call.- -It should not accumulate ether. Then, the Contract pays equally the API consumers' addresses the amount it recieved on call."
      }
    },
    "title": "The provided functionality and API data structure for the API Directory in the form of a library",
    "version": 1
  },
  "userdoc": {
    "kind": "user",
    "methods": {
      "getApiOnCatAndCov(string,SharedStructs.Coordinate,Functionality.API[])": {
        "notice": "Combines searching upon catecory and coverage"
      },
      "getApiOnCategory(string,Functionality.API[])": {
        "notice": "Find APIs based on category"
      },
      "getApiOnCoverage(SharedStructs.Coordinate,Functionality.API[])": {
        "notice": "Find APIs based on coverage"
      },
      "getApiOnCoveragePayable(SharedStructs.Coordinate,Functionality.API[])": {
        "notice": "Finds the APIs based on coverage and pays the producers equally"
      }
    },
    "notice": "Provides the functions and API data structure to make a API Directory smart contract",
    "version": 1
  }
}